:020000040800F2
:100000000000052409260008C5170008C7170008C6
:10001000C9170008CB170008CD1700080000000022
:10002000000000000000000000000000CF170008E2
:10003000D117000800000000D3170008D5170008EA
:100040005926000859260008592600085926000894
:100050005926000859260008592600085926000884
:10006000592600085926000859260008DD170008FF
:10007000ED170008FD1700080D1800081D180008EE
:100080002D1800083D180008592600084D180008D2
:100090005D1800085926000859260008592600084E
:1000A0005926000859260008592600085926000834
:1000B0005926000859260008592600085926000824
:1000C0005926000859260008592600085926000814
:1000D00059260008592600086D1800087D180008E8
:1000E000592600085926000800000000592600087B
:1000F000592600088D180008592600089D18000888
:1001000059260008592600085926000859260008D3
:10011000AD1800085926000859260008592600087D
:10012000BD180008CD180008DD180008ED180008FB
:1001300059260008592600085926000859260008A3
:1001400000000000000000000000000000000000AF
:100150005926000859260008592600085926000883
:100160005926000859260008592600085926000873
:1001700059260008592600085926000800000000EA
:100180005926000859260008FD1800080D19000816
:100190005926000859260008592600085926000843
:1001A00059260008592600085926000800000000BA
:1001B0005926000859260008592600085926000823
:1001C0005926000859260008000000000000000021
:1001D0000000000000000000592600080000000098
:1001E000000000000000000000000000000000000F
:1001F00000000000000000005926000859260008F1
:100200005926000859260008000000005926000859
:1002100059260008592600085926000859260008C2
:1002200059260008000000005926000800000000C0
:100230005926000859260008000000005926000829
:100240005926000859260008592600085926000892
:100250005926000859260008592600085926000882
:100260005926000859260008592600085926000872
:1002700059260008592600085926000800000000E9
:100280005926000859260008592600085926000852
:100290000000000059260008592600080000000050
:1002A0000000000059260008592600081D19000802
:1002B0002D19000859260008592600083D19000884
:0C02C0005926000859260008592600089D
:1003000081F0004102E000BF83F0004330B54FEAC6
:1003100041044FEA430594EA050F08BF90EA020F33
:100320001FBF54EA000C55EA020C7FEA645C7FEAC6
:10033000655C00F0E2804FEA5454D4EB5555B8BFE9
:100340006D420CDD2C4480EA020281EA030382EA5A
:10035000000083EA010180EA020281EA0303362DEC
:1003600088BF30BD11F0004F4FEA01314FF4801CBF
:100370004CEA113102D0404261EB410113F0004FD1
:100380004FEA03334CEA133302D0524263EB430388
:1003900094EA050F00F0A780A4F10104D5F1200E26
:1003A0000DDB02FA0EFC22FA05F2801841F1000181
:1003B00003FA0EF2801843FA05F359410EE0A5F155
:1003C00020050EF1200E012A03FA0EFC28BF4CF086
:1003D000020C43FA05F3C01851EBE37101F000453C
:1003E00007D54FF0000EDCF1000C7EEB00006EEB49
:1003F0000101B1F5801F1BD3B1F5001F0CD34908D3
:100400005FEA30004FEA3C0C04F101044FEA445229
:1004100012F5800F80F09A80BCF1004F08BF5FEAB0
:10042000500C50F1000041EB045141EA050130BD90
:100430005FEA4C0C404141EB0101013C28BFB1F5A2
:10044000801FE9D291F0000F04BF01460020B1FAED
:1004500081F308BF2033A3F10B03B3F120020CDAC0
:100460000C3208DD02F1140CC2F10C0201FA0CF09E
:1004700021FA02F10CE002F11402D8BFC2F1200C03
:1004800001FA02F120FA0CFCDCBF41EA0C019040B9
:10049000E41AA2BF01EB0451294330BD6FEA040402
:1004A0001F3C1CDA0C340EDC04F11404C4F12002ED
:1004B00020FA04F001FA02F340EA030021FA04F3FF
:1004C00045EA030130BDC4F10C04C4F1200220FA56
:1004D00002F001FA04F340EA0300294630BD21FA94
:1004E00004F0294630BD94F0000F83F4801306BF5A
:1004F00081F480110134013D4EE77FEA645C18BF4E
:100500007FEA655C29D094EA050F08BF90EA020FE4
:1005100005D054EA000C04BF1946104630BD91EADC
:10052000030F1EBF0021002030BD5FEA545C05D1DF
:100530004000494128BF41F0004130BD14F580041E
:100540003CBF01F5801130BD01F0004545F0FE4192
:1005500041F470014FF0000030BD7FEA645C1ABFC7
:10056000194610467FEA655C1CBF0B46024650EAFE
:10057000013406BF52EA033591EA030F41F400212A
:1005800030BD00BF90F0000F04BF0021704730B5B0
:100590004FF4806404F132044FF000054FF0000185
:1005A00050E700BF90F0000F04BF0021704730B546
:1005B0004FF4806404F1320410F0004548BF40421B
:1005C0004FF000013EE700BF42004FEAE2014FEA70
:1005D00031014FEA02701FBF12F07F4393F07F4F4B
:1005E00081F06051704732F07F4208BF704793F04E
:1005F0007F4F04BF41F40021704730B54FF4607461
:1006000001F0004521F000411CE700BF50EA010263
:1006100008BF704730B54FF000050AE050EA01020C
:1006200008BF704730B511F0004502D5404261EB7C
:1006300041014FF4806404F132045FEA915C3FF4BD
:10064000D8AE4FF003025FEADC0C18BF03325FEA5A
:10065000DC0C18BF033202EBDC02C2F1200300FA0B
:1006600003FC20FA02F001FA03FE40EA0E0021FA30
:1006700002F11444BDE600BF4FEA4102B2F1E0438B
:1006800024BFB3F5001CDCF1FE5C0DD901F0004C79
:100690004FEAC0024CEA5070B2F1004F40EB8300C9
:1006A00008BF20F00100704711F0804F21D113F1F5
:1006B0003872BCBF01F00040704741F480114FEA2E
:1006C0005252C2F11802C2F1200C10FA0CF320FAB7
:1006D00002F018BF40F001004FEAC1234FEAD323D4
:1006E00003FA0CFC40EA0C0023FA02F34FEA43033E
:1006F000CCE77FEA625307D150EA01331EBF4FF0C7
:10070000FE4040F44000704701F0004040F0FE40E1
:1007100040F40000704700BF53B94AB9002908BF30
:1007200000281CBF4FF0FF314FF0FF3000F00CB835
:10073000ADF1080C6DE904CE09F044FCDDF804E0ED
:10074000DDE9022304B07047704700BF844641EAE8
:10075000000313F003036DD1403A41D351F8043B39
:1007600040F8043B51F8043B40F8043B51F8043B8B
:1007700040F8043B51F8043B40F8043B51F8043B7B
:1007800040F8043B51F8043B40F8043B51F8043B6B
:1007900040F8043B51F8043B40F8043B51F8043B5B
:1007A00040F8043B51F8043B40F8043B51F8043B4B
:1007B00040F8043B51F8043B40F8043B51F8043B3B
:1007C00040F8043B51F8043B40F8043B51F8043B2B
:1007D00040F8043B51F8043B40F8043B403ABDD29A
:1007E000303211D351F8043B40F8043B51F8043B3C
:1007F00040F8043B51F8043B40F8043B51F8043BFB
:1008000040F8043B103AEDD20C3205D351F8043BCA
:1008100040F8043B043AF9D2043208D0D2071CBF96
:1008200011F8013B00F8013B01D30B8803806046BF
:10083000704700BF082A13D38B078DD010F0030335
:100840008AD0C3F10403D21ADB071CBF11F8013BA5
:1008500000F8013B80D331F8023B20F8023B7BE7F4
:10086000043AD9D3013A11F8013B00F8013BF9D21F
:100870000B7803704B7843708B78837060467047B9
:1008800001F0FF01102A2BDB10F0070F08D010F841
:10089000013B013A8B422DD010F0070F42B3F6D145
:1008A000F0B441EA012141EA014122F007047FF05E
:1008B00000070023F0E80256083C85EA010586EAB5
:1008C000010685FA47F5A3FA87F586FA47F6A5FAF1
:1008D00087F68EB9EED1F0BC01F0FF0102F00702FD
:1008E00032B110F8013B013A83EA010313B1F8D1A8
:1008F0000020704701387047002D06BF3546033889
:10090000073815F0010F07D1013015F4807F02BFC1
:10091000013015F4C03F0130F0BC0138704700BF12
:1009200000000000000000000000000000000000C7
:1009300000000000000000000000000000000000B7
:1009400030B490F800F020F007016FF0000C10F0C8
:10095000070491F820F040F048804FF000046FF059
:100960000700D1E9002391F840F000F1080082FA75
:100970004CF2A4FA8CF283FA4CF3A2FA8CF34BBB40
:10098000D1E9022382FA4CF200F10800A4FA8CF2B9
:1009900083FA4CF3A2FA8CF3E3B9D1E9042382FA87
:1009A0004CF200F10800A4FA8CF283FA4CF3A2FA9C
:1009B0008CF37BB9D1E9062301F1200182FA4CF2D4
:1009C00000F10800A4FA8CF283FA4CF3A2FA8CF33B
:1009D000002BC6D0002A04BF04301A4612BAB2FA5D
:1009E00082F200EBD20030BC7047D1E9002304F062
:1009F0000305C4F100004FEAC50514F0040F91F897
:100A000040F00CFA05F562EA05021CBF63EA050333
:100A100062464FF00004AAE770B54FF0FF0C4CF4AB
:100A2000E06C1CEA11541DBF1CEA135594EA0C0F2C
:100A300095EA0C0F00F0DEF82C4481EA030621EA67
:100A40004C5123EA4C5350EA013518BF52EA0335A2
:100A500041F4801143F4801338D0A0FB02CE4FF054
:100A60000005E1FB02E506F00042E0FB03E54FF084
:100A70000006E1FB03569CF0000F18BF4EF0010E7C
:100A8000A4F1FF04B6F5007F64F5407404D25FEA78
:100A90004E0E6D4146EB060642EAC62141EA55512B
:100AA0004FEAC52040EA5E504FEACE2EB4F1FD0C6D
:100AB00088BFBCF5E06F1ED8BEF1004F08BF5FEAEB
:100AC000500E50F1000041EB045170BD06F000469D
:100AD00046EA010140EA020081EA0301B4EB5C044A
:100AE000C2BFD4EB0C0541EA045170BD41F4801142
:100AF0004FF0000E013C00F3AB8014F1360FDEBF67
:100B0000002001F0004170BDC4F10004203C35DA42
:100B10000C341BDC04F11404C4F1200500FA05F3C5
:100B200020FA04F001FA05F240EA020001F0004266
:100B300021F0004110EBD37021FA04F642EB0601DC
:100B40005EEA430E08BF20EAD37070BDC4F10C0406
:100B5000C4F1200500FA04F320FA05F001FA04F2CA
:100B600040EA020001F0004110EBD37041F10001B6
:100B70005EEA430E08BF20EAD37070BDC4F12005C1
:100B800000FA05F24EEA020E20FA04F301FA05F229
:100B900043EA020321FA04F001F0004121FA04F2D1
:100BA00020EA020000EBD3705EEA430E08BF20EAA1
:100BB000D37070BD94F0000F0FD101F000464000DB
:100BC00041EB010111F4801F08BF013CF7D041EA5D
:100BD000060195F0000F18BF704703F00046520061
:100BE00043EB030313F4801F08BF013DF7D043EA32
:100BF0000603704794EA0C0F0CEA135518BF95EAE8
:100C00000C0F0CD050EA410618BF52EA4306D1D16E
:100C100081EA030101F000414FF0000070BD50EA8D
:100C2000410606BF1046194652EA430619D094EA17
:100C30000C0F02D150EA013613D195EA0C0F05D101
:100C400052EA03361CBF104619460AD181EA030155
:100C500001F0004141F0FE4141F470014FF000000D
:100C600070BD41F0FE4141F4780170BD70B54FF0A8
:100C7000FF0C4CF4E06C1CEA11541DBF1CEA135528
:100C800094EA0C0F95EA0C0F00F0A7F8A4EB05040A
:100C900081EA030E52EA03354FEA013100F0888001
:100CA0004FEA03334FF0805545EA131343EA1263CA
:100CB0004FEA022245EA111545EA10654FEA00267F
:100CC0000EF000419D4208BF964244F1FD0404F538
:100CD000407402D25B084FEA3202B61A65EB030594
:100CE0005B084FEA32024FF480104FF4002CB6EB51
:100CF000020E75EB030E22BFB61A754640EA0C00D1
:100D00005B084FEA3202B6EB020E75EB030E22BF10
:100D1000B61A754640EA5C005B084FEA3202B6EB51
:100D2000020E75EB030E22BFB61A754640EA9C0010
:100D30005B084FEA3202B6EB020E75EB030E22BFE0
:100D4000B61A754640EADC0055EA060E18D04FEA9E
:100D5000051545EA16754FEA06164FEAC30343EA3E
:100D600052734FEAC2025FEA1C1CC0D111F4801F0B
:100D70000BD141EA00014FF000004FF0004CB6E704
:100D800011F4801F04BF01430020B4F1FD0C88BFA3
:100D9000BCF5E06F3FF6AFAEB5EB030C04BFB6EBAE
:100DA000020C5FEA500C50F1000041EB045170BDA1
:100DB0000EF0004E4EEA113114EB5C04C2BFD4EBCE
:100DC0000C0541EA045170BD41F480114FF0000E52
:100DD000013C90E645EA060E8DE60CEA135594EACE
:100DE0000C0F08BF95EA0C0F3FF43BAF94EA0C0FD1
:100DF0000AD150EA01347FF434AF95EA0C0F7FF446
:100E000025AF104619462CE795EA0C0F06D152EA99
:100E100003353FF4FDAE1046194622E750EA41067D
:100E200018BF52EA43067FF4C5AE50EA41047FF48E
:100E30000DAF52EA43057FF4EBAE12E74FF0FF3CF3
:100E400006E000BF4FF0010C02E000BF4FF0010CC4
:100E50004DF804CD4FEA410C7FEA6C5C4FEA430C3D
:100E600018BF7FEA6C5C1BD001B050EA410C0CBF8C
:100E700052EA430C91EA030F02BF90EA020F0020EE
:100E8000704710F1000F91EA030F58BF994208BF55
:100E900090422CBFD8176FEAE37040F00100704712
:100EA0004FEA410C7FEA6C5C02D150EA013C07D169
:100EB0004FEA430C7FEA6C5CD6D152EA033CD3D0B4
:100EC0005DF8040B704700BF8446104662468C46AE
:100ED0001946634600E000BF01B5FFF7B7FF0028E1
:100EE00048BF10F1000F01BD4DF808EDFFF7F4FF0A
:100EF0000CBF012000205DF808FB00BF4DF808ED95
:100F0000FFF7EAFF34BF012000205DF808FB00BFB7
:100F10004DF808EDFFF7E0FF94BF012000205DF8D9
:100F200008FB00BF4DF808EDFFF7CEFF94BF01208E
:100F300000205DF808FB00BF4DF808EDFFF7C4FF87
:100F400034BF012000205DF808FB00BF4FEA410CD0
:100F50007FEA6C5C02D150EA013C0AD14FEA430CB3
:100F60007FEA6C5C02D152EA033C02D14FF00000F0
:100F700070474FF0010070474FEA410212F500122E
:100F800015D211D56FF47873B3EB625212D94FEAD0
:100F9000C12343F0004343EA505311F0004F23FABA
:100FA00002F018BF404270474FF00000704750EA0F
:100FB000013005D111F0004008BF6FF000407047CC
:100FC0004FF00000704700BF0348044B834202D03B
:100FD000034B03B118477047A8070024A807002453
:100FE000000000000548064B1B1AD90F01EBA301B6
:100FF000491002D0034B03B118477047A8070024DB
:10100000A80700240000000010B5064C237843B95F
:10101000FFF7DAFF044B13B10448AFF3008001235C
:10102000237010BDA807002400000000E807010895
:1010300008B5054B1BB105490548AFF30080BDE875
:101040000840FFF7CFBF00BF00000000AC0700243E
:10105000E807010800B583B03D4BD3F8D82042F033
:101060000102C3F8D820D3F8D82002F00102009280
:10107000009AD3F8D82042F00202C3F8D820D3F85F
:10108000D83003F002030193019B002204210B20BE
:1010900001F0B2FB0B2001F0BFFB002203210C206A
:1010A00001F0AAFB0C2001F0B7FB002203210D2068
:1010B00001F0A2FB0D2001F0AFFB002203210E2066
:1010C00001F09AFB0E2001F0A7FB002203210F2064
:1010D00001F092FB0F2001F09FFB00220221102063
:1010E00001F08AFB102001F097FB00220221112061
:1010F00001F082FB112001F08FFB002202212F2042
:1011000001F07AFB2F2001F087FB0022012138201B
:1011100001F072FB382001F07FFB00220121392011
:1011200001F06AFB392001F077FB002211463A20DA
:1011300001F062FB3A2001F06FFB002211463B20D8
:1011400001F05AFB3B2001F067FB03B05DF804FBA4
:101150000044025838B51548154B036000238360DE
:10116000C360037443748374042141610125856164
:101170001324C4610522026241628562C462026373
:1011800043638263C2630164082242648364C2646D
:10119000036541658365C36502664366826603F045
:1011A0006BF800B938BD00F0D6F9FBE70809002458
:1011B00000A0004010B51748174B03600023836060
:1011C000C360037443748374052242610124846103
:1011D0000E21C161026242628462C162026340F216
:1011E000563141638263C2630364042242648264B1
:1011F0000821C164036542658365C3650266436671
:101200000623836603F038F800B910BD00F0A3F997
:10121000FBE700BF6808002400A4004010B5174891
:10122000174B036000238360C360037443748374AB
:1012300005224261012484610E21C1610262426281
:101240008462C162026340F2AD6141638263C26342
:1012500002220264042242648364C264036542651C
:101260008365C365032101664366826603F004F863
:1012700000B910BD00F06FF9FBE700BFC8070024FC
:1012800000D4004010B58CB0002307930893099355
:101290000A930B930368544A934207D0534A9342EC
:1012A00038D0534A934269D00CB010BD514A1368EC
:1012B00001331360012B1FD04F4BD3F8E02042F0D5
:1012C0000802C3F8E020D3F8E03003F008030293EB
:1012D000029B032307930224089409230B9307A975
:1012E000464803F0A3FC00222146132001F084FAB3
:1012F000132001F091FAD7E73F4BD3F8EC2042F4EA
:101300008072C3F8EC20D3F8EC3003F480730193BF
:10131000019BD1E7374A136801331360012B1FD0BB
:10132000354BD3F8E02042F00202C3F8E020D3F8B6
:10133000E03003F002030493049B6023079302232D
:10134000089309230B9307A92D4803F06FFC002293
:101350000121142001F050FA142001F05DFAA3E7F6
:10136000254BD3F8EC2042F48072C3F8EC20D3F87C
:10137000EC3003F480730393039BD1E71D4A136899
:1013800001331360012B20D01B4BD3F8E02042F037
:101390000802C3F8E020D3F8E03003F00803069316
:1013A000069B4FF4405307930223089305230B93A6
:1013B00007A9124803F03AFC002201219F2001F006
:1013C0001BFA9F2001F028FA6EE70B4BD3F8EC20B4
:1013D00042F48072C3F8EC20D3F8EC3003F480734D
:1013E0000593059BD0E700BF00A0004000A400408B
:1013F00000D40040C407002400440258000C0258E6
:1014000000040258F0B58DB00024079408940994A4
:101410000A940B94374BD3F8E02042F01002C3F843
:10142000E020D3F8E02002F010020192019AD3F8F4
:10143000E02042F00402C3F8E020D3F8E02002F0FC
:1014400004020292029AD3F8E02042F08002C3F82C
:10145000E020D3F8E02002F080020392039AD3F850
:10146000E02042F00102C3F8E020D3F8E02002F0CF
:1014700001020492049AD3F8E02042F00802C3F873
:10148000E020D3F8E02002F008020592059AD3F894
:10149000E02042F00202C3F8E020D3F8E03003F08D
:1014A00002030693069B144F01224FF4C0413846B5
:1014B00003F0C6FC114D22464FF47E41284603F04E
:1014C000BFFC4FF4C04307930126089609940A9481
:1014D00007A9384603F0AAFB4FF47E43079308960A
:1014E000099402230A9307A9284603F09FFB0DB035
:1014F000F0BD00BF00440258000802580010025816
:1015000010B584B00024009401940294039401F077
:101510009BF901238DF800308DF801404FF01052F7
:10152000019212228DF808208DF809408DF80A30BA
:1015300003228DF80B208DF80C408DF80D308DF8BE
:101540000E308DF80F30684601F09CF9042001F050
:1015500089F904B010BD72B6FEE7000000B59DB079
:101560004C22002109A809F095FA2022002101A8A7
:1015700009F090FA022003F073FC00230093204B43
:101580009A6922F440429A619B6903F440430093B4
:10159000009B1B4B9B6913F4005FFAD00122099258
:1015A0004FF480330A930223129313931493282148
:1015B00015911692179318930C23199300231A93DD
:1015C0001B9309A803F076FCA8B93F2301930321DC
:1015D0000291002303930823049340230593069369
:1015E0004FF480620792089301A804F051F820B9E3
:1015F0001DB05DF804FBFFF7AEFFFFF7ACFF00BFC7
:101600000048025800B5AFB0B8220021684609F082
:1016100041FA4FF400420023CDE90023182302933E
:10162000C82303930223049305930693202308936E
:101630004FF000531B93684604F0C2FA10B92FB064
:101640005DF804FBFFF787FF00B587B0FFF758FF91
:101650004D4B5B6913F4003F13D1BFF34F8FBFF3C2
:101660006F8F494B0022C3F85022BFF34F8FBFF357
:101670006F8F5A6942F400325A61BFF34F8FBFF344
:101680006F8F414B5B6913F4803F27D13E4B0022A3
:10169000C3F88420BFF34F8FD3F88040C4F34E309B
:1016A00000E01846C4F3C90243F6E07303EA4013AE
:1016B00043EA82733449C1F860321346013A002B81
:1016C000F2D1431E0028ECD1BFF34F8F4B6943F496
:1016D00080334B61BFF34F8FBFF36F8F00F0E6FF96
:1016E000FFF73CFFFFF78EFFFFF78CFEFFF7B2FC22
:1016F00000F05EFBFFF72EFDFFF75CFDFFF78EFDB0
:1017000000F08CFB00F0D6F900F01CFB00F0E6FACC
:1017100000F0AEFA00F00AFA00F03EFA00F072FAB9
:1017200007F0CCFA194BD3ED0C7ADFED196A67EEAE
:10173000A67A9FED187A87EE878A174AD66AD2ED85
:101740000C7A67EEA67AC7EE878AD86AFEF73CFF66
:1017500004460D4618EE900AFEF736FFCDE9040167
:101760003046FEF731FFCDE9020118EE100AFEF710
:101770002BFFCDE9000122462B46084809F02EF93F
:101780000A2000F0D3FFCDE700ED00E0501B00245D
:1017900000003443DB0F49407C1400244C0801084E
:1017A00082B0074BD3F8F42042F00202C3F8F420D1
:1017B000D3F8F43003F002030193019B02B07047A9
:1017C00000440258FEE7FEE7FEE7FEE7FEE770474B
:1017D0007047704708B500F097FF08BD08B502488C
:1017E00002F07EF808BD00BFF809002408B50248E1
:1017F00002F076F808BD00BFE80A002408B50248E8
:1018000002F06EF808BD00BF700A002408B5024857
:1018100002F066F808BD00BF500C002408B502486D
:1018200002F05EF808BD00BFD80B002408B50248DE
:1018300002F056F808BD00BF300E002408B502487B
:1018400002F04EF808BD00BFB80D002408B50248EC
:1018500003F05CF808BD00BF0809002408B5024881
:1018600003F054F808BD00BF6808002408B502481A
:1018700005F0B2FB08BD00BF5411002408B50248B2
:1018800005F0AAFB08BD00BFC010002408B502483F
:1018900005F012F908BD00BFAC09002408B50248E4
:1018A00002F01EF808BD00BF200F002408B5024852
:1018B00005F092FB08BD00BFA413002408B5024840
:1018C00002F00EF808BD00BF600B002408B5024806
:1018D00002F006F808BD00BFA80E002408B50248B3
:1018E00001F0FEFF08BD00BF400D002408B502480E
:1018F00001F0F6FF08BD00BFC80C002408B502487F
:1019000005F06AFB08BD00BF1013002408B50248AB
:1019100005F062FB08BD00BF7C12002408B5024838
:1019200005F05AFB08BD00BFE811002408B50248C5
:1019300005F052FB08BD00BF980F002408B502480F
:1019400002F0E4FF08BD00BFC80700240120704773
:1019500008B509F057F9162303604FF0FF3008BDB2
:1019600008B54FF0FF31FFF7F3FFFEE770B50C4607
:101970001646002506E0AFF30080214601F8010B72
:1019800001350C46B542F6DB304670BD70B50C46ED
:101990001646002504E014F8010B00F025FE013581
:1019A000B542F8DB304670BD4FF0FF3070474FF462
:1019B00000534B60002070470120704700207047A3
:1019C00010B503460C4A0D490D48006840B10C485B
:1019D00000680344521A934206D8094A136010BDA6
:1019E0000748084C0460F2E709F00CF90C23036087
:1019F0004FF0FF30F3E700BF0000052400040000B3
:101A0000A809002488260024224AD2F8883043F40A
:101A10007003C2F88830204B1B6803F00F03062BBD
:101A200006D81D4A136823F00F0343F00703136021
:101A30001A4B1A6842F001021A6000221A611968F2
:101A4000174A0A401A60144B1B6813F0080F06D09F
:101A5000114A136823F00F0343F0070313600F4B81
:101A600000229A61DA611A620E4999620E49D962BE
:101A70000E4919635A639963DA6319645A641968E1
:101A800021F4802119601A66094B43F2D2021A60D0
:101A9000704700BF00ED00E00020005200440258F3
:101AA0007FEDF6EA000202020000FF018002010160
:101AB0000040005208B50948094B0360EF2343601A
:101AC0000023836040F2E732C2600361836105F066
:101AD00049F900B908BDFFF73EFDFBE7AC0900245A
:101AE0000020004002680F4B9A4200D0704700B5BA
:101AF00083B00D4BD3F8E82042F48072C3F8E8209D
:101B0000D3F8E83003F480730193019B002211465F
:101B10002D2000F071FE2D2000F07EFE03B05DF858
:101B200004FB00BF002000400044025808B51748DD
:101B3000174B0360174B436000238360C36003614E
:101B40000C2242618361C36103624362836206F0D7
:101B50005CF970B900210D4806F02AFA60B900213D
:101B60000A4806F04AFA50B9084806F002FA48B99D
:101B700008BDFFF7F0FCEDE7FFF7EDFCEFE7FFF73F
:101B8000EAFCF1E7FFF7E7FCF2E700BFA41300244B
:101B9000004C0040003E490008B51748174B036051
:101BA000174B436000238360C36003610C224261D2
:101BB0008361C36103624362836206F026F970B9F0
:101BC00000210D4806F0F4F960B900210A4806F03A
:101BD00014FA50B9084806F0CCF948B908BDFFF727
:101BE000BAFCEDE7FFF7B7FCEFE7FFF7B4FCF1E76E
:101BF000FFF7B1FCF2E700BF1013002400780040AB
:101C0000003E490008B51748174B0360174B436067
:101C100000238360C36003610C2242618361C3615E
:101C200003624362836206F0F0F870B900210D4848
:101C300006F0BEF960B900210A4806F0DEF950B995
:101C4000084806F096F948B908BDFFF784FCEDE7AF
:101C5000FFF781FCEFE7FFF77EFCF1E7FFF77BFC86
:101C6000F2E700BF7C120024007C0040A068060060
:101C700008B51748174B0360174B43600023836078
:101C8000C36003610C2242618361C36103624362EA
:101C9000836206F0BAF870B900210D4806F088F9A1
:101CA00060B900210A4806F0A8F950B9084806F0C2
:101CB00060F948B908BDFFF74EFCEDE7FFF74BFCB4
:101CC000EFE7FFF748FCF1E7FFF745FCF2E700BF5D
:101CD000E811002400180140003E490008B51748EB
:101CE000174B03604FF46123436000238360C3609C
:101CF00003610C2242618361C361036243628362B8
:101D000006F083F870B900210C4806F051F960B96B
:101D100000210A4806F071F950B9084806F029F97F
:101D200048B908BDFFF717FCEDE7FFF714FCEFE734
:101D3000FFF711FCF1E7FFF70EFCF2E75411002466
:101D40000044004008B51748174B0360174B436029
:101D500000238360C36003610C2242618361C3611D
:101D600003624362836206F050F870B900210D48A7
:101D700006F01EF960B900210A4806F03EF950B994
:101D8000084806F0F6F848B908BDFFF7E4FBEDE7B0
:101D9000FFF7E1FBEFE7FFF7DEFBF1E7FFF7DBFB28
:101DA000F2E700BFC010002400480040003E490098
:101DB00008B51748174B0360174B43600023836037
:101DC000C36003610C2242618361C36103624362A9
:101DD000836206F01AF870B900210D4806F0E8F8A1
:101DE00060B900210A4806F008F950B9084806F021
:101DF000C0F848B908BDFFF7AEFBEDE7FFF7ABFB56
:101E0000EFE7FFF7A8FBF1E7FFF7A5FBF2E700BF5D
:101E10002C10002400140140A068060008B51748E3
:101E2000174B0360174B436000238360C36003615B
:101E30000C2242618361C36103624362836205F0E5
:101E4000E4FF70B900210D4806F0B2F860B9002136
:101E50000A4806F0D2F850B9084806F08AF848B99E
:101E600008BDFFF778FBEDE7FFF775FBEFE7FFF73E
:101E700072FBF1E7FFF76FFBF2E700BF980F00245A
:101E8000001C0140A06806002DE9F041C4B00446E2
:101E900000213F914091419142914391B82210A875
:101EA00008F0F8FD2368834A93421ED0824A934289
:101EB00000F08C80814A934200F02281804A934254
:101EC00000F08C817F4A934200F0FC817E4A93426D
:101ED00000F06A827D4A934200F0DA827C4A9342A3
:101EE00000F0098344B0BDE8F08102220023CDE96F
:101EF000102310A803F064FE00285ED1754BD3F8C0
:101F0000E82042F40022C3F8E820D3F8E82002F4E5
:101F100000220092009AD3F8E02042F00102C3F8B8
:101F2000E020D3F8E03003F001030193019B032389
:101F30003F93022240920025419542930823439308
:101F40003FA9654802F072FE6448654B03603F2379
:101F500043608560C5604FF48063036145618561BE
:101F6000C5614FF400330362456200F0C7FE38BB21
:101F70005A4BC4F880309C635A485B4B0360402343
:101F8000436083600023C3604FF480620261436159
:101F90008361C3614FF400320262436200F0AEFE1F
:101FA00088B9504BE3679C6300220221342000F083
:101FB00023FC342000F030FC94E7FFF7CCFA9DE7D7
:101FC000FFF7C9FAD4E7FFF7C6FAEAE702220023CF
:101FD000CDE9102310A803F0F3FD002861D13D4B9B
:101FE000D3F8E82042F08042C3F8E820D3F8E82094
:101FF00002F080420292029AD3F8E02042F01002EE
:10200000C3F8E020D3F8E03003F010030393039B00
:102010004FF4C0733F93022340930025419503235F
:102020004293072343933FA9304802F0FFFD304815
:10203000304B03604F2343608560C5604FF480637D
:10204000036145618561C5614FF4003303624562F8
:1020500000F054FE40BB264BC4F880309C632648F9
:10206000264B036050234360402383600023C360FA
:102070004FF48062026143618361C3614FF40032B7
:102080000262436200F03AFE88B91B4BE3679C632F
:1020900000220221522000F0AFFB522000F0BCFBD6
:1020A00020E7FFF758FA9AE7FFF755FAD3E7FFF76B
:1020B00052FAEAE7004C004000780040007C004003
:1020C0000018014000440040004800400014014056
:1020D000001C01400044025800000258200F002458
:1020E000B8000240A80E0024280402400010025844
:1020F000300E002488000240B80D0024A0000240E9
:1021000002220023CDE9102310A803F059FD002876
:102110005BD1984BD3F8E82042F00042C3F8E820A6
:10212000D3F8E82002F000420492049AD3F8E020A9
:1021300042F01002C3F8E020D3F8E03003F01003BF
:102140000593059B03233F9302234093002541956C
:102150004295082343933FA9874802F067FD8748CB
:10216000874B0360512343608560C5604FF48063F3
:10217000036145618561C5610562456200F0BEFD90
:1021800030BB7E4BC4F880309C637E487E4B03603E
:1021900052234360402383600023C3604FF4806276
:1021A000026143618361C3610362436200F0A6FD83
:1021B00088B9744BE3679C6300220421532000F02C
:1021C0001BFB532000F028FB8CE6FFF7C4F9A0E7C7
:1021D000FFF7C1F9D5E7FFF7BEF9EAE701220023CF
:1021E000CDE9102310A803F0EBFC002861D1614B6E
:1021F000D3F8F02042F04002C3F8F020D3F8F020EA
:1022000002F040020692069AD3F8E02042F008025B
:10221000C3F8E020D3F8E03003F008030793079BEE
:102220004FF440433F9302234093002541950323FD
:1022300042930B2343933FA9544802F0F7FC5448C0
:10224000544B0360742343608560C5604FF4806322
:10225000036145618561C5614FF4003303624562E6
:1022600000F04CFD40BB4A4BC4F880309C634A48A8
:102270004A4B036075234360402383600023C3609F
:102280004FF48062026143618361C3614FF40032A5
:102290000262436200F032FD88B93F4BE3679C6302
:1022A000002203219B2000F0A7FA9B2000F0B4FA43
:1022B00018E6FFF750F99AE7FFF74DF9D3E7FFF774
:1022C0004AF9EAE702220023CDE9102310A803F01F
:1022D00077FC002847D1274BD3F8E82042F400329E
:1022E000C3F8E820D3F8E82002F400320892089AF4
:1022F000D3F8E02042F00802C3F8E020D3F8E03041
:1023000003F008030993099B60233F930223409342
:102310000025419503234293072343933FA91B487C
:1023200002F084FC1E481F4B03602B234360856032
:10233000C5604FF48063036145618561C5614FF4F9
:1023400040330362456200F0D9FC78B9144BC4F8FD
:1023500080309C6300220121262000F04DFA2620C7
:1023600000F05AFABEE5FFF7F6F8B4E7FFF7F3F826
:10237000ECE700BF0044025800100258400D002452
:1023800040040240C80C002458040240000C0258CB
:10239000500C002458000240D80B0024700002406A
:1023A000600B00241004024002220023CDE9102318
:1023B00010A803F005FC002861D1814BD3F8E82078
:1023C00042F48022C3F8E820D3F8E82002F4802207
:1023D0000A920A9AD3F8E02042F00802C3F8E020FB
:1023E000D3F8E03003F008030B930B9B4FF44073DA
:1023F0003F930223409300254195032342930723F3
:1024000043933FA96F4802F011FC6F486F4B036084
:102410002D2343608560C5604FF48063036145618F
:102420008561C5614FF400330362456200F066FCCC
:1024300040BB654BC4F880309C636548654B0360C6
:102440002E234360402383600023C3604FF48062E7
:10245000026143618361C3614FF4003202624362EF
:1024600000F04CFC88B95A4BE3679C6300220321BF
:10247000272000F0C1F9272000F0CEF932E5FFF760
:102480006AF89AE7FFF767F8D3E7FFF764F8EAE737
:1024900001220023CDE9102310A803F091FB38BBE3
:1024A000474BD3F8F02042F02002C3F8F020D3F8D5
:1024B000F02002F020020C920C9AD3F8E02042F0B7
:1024C0000402C3F8E020D3F8E03003F004030D93D6
:1024D0000D9BC0233F93022340930023419303238A
:1024E0004293072343933FA93B4802F09FFBF9E443
:1024F000FFF731F8D4E701220023CDE9102310A81B
:1025000003F05EFB002855D12D4BD3F8F02042F0AC
:102510008002C3F8F020D3F8F02002F080020E927F
:102520000E9AD3F8E02042F01002C3F8E020D3F86E
:10253000E03003F010030F930F9B04233F934FF001
:102540000208CDF800810025419503274297439367
:10255000224E3FA9304602F069FB08233F93CDF895
:102560000081419542970B2343933FA9304602F0E7
:102570005DFB1B481B4B0360762343608560C56091
:102580004FF48063036145618561C5614FF4803319
:102590000362456200F0B2FB78B9114BC4F8803099
:1025A0009C63002203219C2000F026F99C2000F06F
:1025B00033F997E4FEF7CFFFA6E7FEF7CCFFECE791
:1025C00000440258000C0258E80A00242800024087
:1025D000700A00244000024000080258001002580F
:1025E000F80900241000024000B583B001904FF0BC
:1025F000FF33012201A9034805F03AFB019803B01B
:102600005DF804FB2C100024DFF834D0FFF7FCF950
:102610000C480D490D4A002302E0D458C45004333D
:10262000C4188C42F9D30A4A0A4C002301E0136013
:102630000432A242FBD308F0EBFAFFF705F870472B
:102640000000052400000024A8070024FC14010851
:10265000A807002488260024FEE70000104B1B7802
:102660000BB90120704710B504464FF47A70B0FBE7
:10267000F3F30C4A1068B0FBF3F000F0D1F868B93E
:102680000F2C01D901200AE0002221464FF0FF3033
:1026900000F0B2F8044B1C60002000E0012010BDE7
:1026A00008000024040000240C00002410B50320BE
:1026B00000F090F802F0F0FE0F498B69C3F303239A
:1026C0000E4AD35C03F01F03D8408B6903F00F035D
:1026D000D35C03F01F0320FA03F3094A1360094B8C
:1026E00018600F20FFF7BAFF10B10124204610BD7B
:1026F0000446FFF755F8F9E700440258040A0108B8
:102700000000002404000024034B1B78034A1168D6
:102710000B441360704700BF0800002438140024E5
:10272000014B1868704700BF3814002438B50446C0
:10273000FFF7F6FF0546B4F1FF3F02D0044B1B78CC
:102740001C44FFF7EDFF401BA042FAD338BD00BF89
:1027500008000024002807DB00F01F0240090123C5
:102760009340024A42F82030704700BF00E100E089
:10277000002804DB0901C9B2044B1954704700F06A
:102780000F000901C9B2024B1954704700E400E080
:1027900014ED00E000B500F00700C0F1070CBCF13B
:1027A000040F28BF4FF0040C031D062B0FD9C31EC6
:1027B0004FF0FF3E0EFA0CF021EA000199400EFAAC
:1027C00003FE22EA0E0241EA02005DF804FB002348
:1027D000EEE700000649CB6823F4E0631B041B0C02
:1027E000000200F4E0600343024A1A43CA607047E3
:1027F00000ED00E00000FA0510B50446054BD8686E
:10280000C0F30220FFF7C6FF01462046FFF7B0FFE6
:1028100010BD00BF00ED00E008B5FFF79BFF08BD4D
:102820000138B0F1807F0BD24FF0E0235861054AA8
:10283000F02182F823100020986107221A61704766
:102840000120704700ED00E0BFF35F8F044B5A6A30
:1028500022F480325A620022C3F89420704700BFED
:1028600000ED00E040F00100054BC3F894005A6A07
:1028700042F480325A62BFF34F8FBFF36F8F7047BD
:1028800000ED00E04378144AC2F89830D2F8A03046
:1028900023F00103C2F8A0304368C2F89C30017BEA
:1028A000C37A1B0643EA0173817A43EAC143417B41
:1028B00043EA8143817B43EA4143C17B43EA0143CD
:1028C000417A43EA0123017A43EA410301780B4349
:1028D000C2F8A030704700BF00ED00E0F0B4876D93
:1028E0000468664E664DAC4218BFB44242D01835FB
:1028F000AC423FD01835AC423CD01835AC4239D050
:102900001835AC4236D01835AC4233D01835AC420D
:1029100030D005F55675AC422CD01835AC4229D0D4
:102920001835AC4226D01835AC4223D01835AC420D
:1029300020D01835AC421DD01835AC421AD018350D
:10294000AC4217D04F4DAC4214D01435AC4211D02C
:102950001435AC420ED01435AC420BD01435AC4219
:1029600008D01435AC4205D01435AC4202D0143531
:10297000AC4207D1446E856E6560C46E14B1046FBD
:10298000456F656004683D4E3D4DAC4218BFB44292
:1029900052D01835AC424FD01835AC424CD0183517
:1029A000AC4249D01835AC4246D01835AC4243D081
:1029B0001835AC4240D005F55675AC423CD01835C0
:1029C000AC4239D01835AC4236D01835AC4233D091
:1029D0001835AC4230D01835AC422DD01835AC4249
:1029E0002AD01835AC4227D0264E274DAC4218BF0E
:1029F000B44211D0254DAC420ED01435AC420BD0B0
:102A00001435AC4208D01435AC4205D01435AC4274
:102A100002D01435AC4224D1C46D04F01F0501244A
:102A2000AC407C60046863608368402B20D00368FE
:102A300099600368DA6014E0C46D04F01F0C3F2451
:102A400004FA0CF4BC6005682C6824F480242C6023
:102A5000046863608368402B05D00368996003684D
:102A6000DA60F0BC704703689A600368D960F8E7E1
:102A700003689A600368D960F3E700BF1000024062
:102A800028000240085402581C540258305402587E
:102A900003682749274A934218BF8B422FD0183228
:102AA00093422CD01832934229D01832934226D028
:102AB0001832934223D01832934220D018329342D6
:102AC0001DD002F55672934219D01832934216D097
:102AD0001832934213D01832934210D018329342D6
:102AE0000DD0183293420AD01832934207D01832D0
:102AF000934204D023F0FF038365806D704710B4C8
:102B0000D9B210390C4AA2FB0142C2F302120B4C9B
:102B1000A25CC2655F2907D96FF30903043383659B
:102B2000806D5DF8044B70476FF309038365F7E729
:102B30001000024028000240ABAAAAAA140A010809
:102B400083699BB9836A012B0AD0022B02D00BB197
:102B500000207047C36A13F0807F2AD1002070479D
:102B6000C36AB3F1C07F26D000207047B3F5005F81
:102B70000AD0836A022B26D9032B26D1C36A13F00D
:102B8000807F24D100207047836A032B03D8DFE8BD
:102B900003F01404140A00207047C36A13F0807F06
:102BA0000DD100207047C36AB3F1C07F09D0002067
:102BB00070470120704701207047012070470120B5
:102BC00070470120704701207047002070470120A6
:102BD0007047000003682149214A934218BF8B4285
:102BE00027D01432934224D01432934221D014328D
:102BF00093421ED0143293421BD01432934218D009
:102C00001432934215D0DAB2103A1649A1FB0212DF
:102C1000120915491944A8291ED9144B13449B00C5
:102C20000366134B436602F01F0201239340836641
:102C30007047DBB2083B0F4AA2FB03230E4A02EBAC
:102C40001312920002660D4A4266C3F30413012276
:102C500002FA03F3836670470832DEE7085402582D
:102C60001C540258ABAAAAAAF0FBFDBF00820010B8
:102C700080080240CDCCCCCC00960016805802587B
:102C800001794A1E072A2BD830B40368154D164C1B
:102C9000A34218BFAB4218D01434A34215D0143449
:102CA000A34212D01434A3420FD01434A3420CD048
:102CB0001434A34209D01434A34206D00B4B0B4466
:102CC0009B00C3660A4B036705E00A4B0B449B005D
:102CD000C366094B036701239340436730BC7047C9
:102CE000704700BF085402581C5402583F8200101D
:102CF000400902403F9600164059025870B50446FC
:102D0000FFF70EFD002C00F0B781054623685349FC
:102D1000534A934218BF8B420CBF0121002150D06F
:102D2000183293424DD0183293424AD0183293420F
:102D300047D01832934244D01832934241D01832CF
:102D400093423ED002F5567293423AD018329342E3
:102D500037D01832934234D01832934231D01832DF
:102D600093422ED0183293422BD01832934228D05F
:102D70001832934225D03B493B4A934218BF8B42BD
:102D800000F03281394A934200F02E81143293428E
:102D900000F02A811432934200F0268114329342CB
:102DA00000F022811432934200F01E8114329342CB
:102DB00000F01A8140236365032384F83530012035
:102DC0004AE0022284F83520002284F8342079BBBE
:102DD000274A93422CD01832934229D0183293427A
:102DE00026D01832934223D01832934220D0183282
:102DF00093421DD002F55672934219D01832934275
:102E000016D01832934213D01832934210D0183291
:102E100093420DD0183293420AD01832934207D011
:102E20001832934204D01A6822F001021A6003E0BB
:102E30001A6822F001021A6023681A6812F0010F62
:102E400018D0FFF76DFC431B052BF5D920236365D4
:102E5000032384F83530012070BD00BF100002400C
:102E600028000240085402581C540258305402589A
:102E7000400002401A6881491140A268E06802439C
:102E80002069024360690243A0690243E06902438A
:102E9000206A02430A43616A042900F09080616855
:102EA000522900F296803F29C0F08E803F39744845
:102EB00020FA01F111F0010F01D042F480121A60E2
:102EC0002668756925F00705636A1D43042B08D140
:102ED000A36A1D43E36A23B12046FFF731FE0028B1
:102EE0007CD175612046FFF7D3FDE36D03F01F022F
:102EF0003F239340836023686249634A934218BF2B
:102F00008B4242D0183293423FD0183293423CD089
:102F10001832934239D01832934236D01832934245
:102F200033D01832934230D002F5567293422CD0EF
:102F30001832934229D01832934226D01832934245
:102F400023D01832934220D0183293421DD0183229
:102F500093421AD01832934217D04C4A934214D05D
:102F60001432934211D0143293420ED01432934251
:102F70000BD01432934208D01432934205D014324D
:102F8000934202D01432934213D12046FFF722FE1F
:102F9000A368802B63D0236E22791A60636EA26EC1
:102FA0005A606368013B072B5CD90023E366236703
:102FB000636700206065012384F835304CE7E16ADF
:102FC000206B01430A436AE7293905293FF677AFA9
:102FD00073E7743903293FF672AF6EE740236365E8
:102FE000012084F8350037E7022284F835200022DA
:102FF00084F8342019686FF31011A268402A2CD08D
:10300000802A27D00022E06842EAD002206942EA02
:10301000D002606942EAD002A06942EAD002E069C7
:1030200042EAD002206A42EA10120A431A60226879
:10303000174B1344174AA2FB03231B099B00E365AC
:103040002046FFF725FDE26D02F01F0101228A40B4
:10305000426050E74FF48042D5E71022D3E70023C7
:10306000636098E72046FFF70BFEE36E00221A60CC
:10307000236F626F5A609CE70120EDE63F8010FEEF
:103080000F030F00100002402800024008540258AD
:10309000F8ABFDA7CDCCCCCC002800F03E8170B5BC
:1030A000044690F83400012800F03981012084F8AA
:1030B000340094F83500C0B2012807D04FF4006303
:1030C0006365002384F83430012070BD022084F849
:1030D0003500002060652068924E934DA84218BFCD
:1030E000B0422FD01835A8422CD01835A84229D08C
:1030F0001835A84226D01835A84223D01835A84242
:1031000020D01835A8421DD005F55675A84219D013
:103110001835A84216D01835A84213D01835A84241
:1031200010D01835A8420DD01835A8420AD018354D
:10313000A84207D01835A84204D0056825F001053B
:10314000056003E0056825F0010505602046FFF7EE
:10315000C5FB23687349744A934218BF8B4238D029
:103160001832934235D01832934232D018329342FB
:103170002FD0183293422CD01832934229D01832D3
:10318000934226D002F55672934222D018329342CF
:103190001FD0183293421CD01832934219D01832E3
:1031A000934216D01832934213D01832934210D063
:1031B000183293420DD01A6822F00E0242F00A0231
:1031C0001A60236C93B12268136843F00403136000
:1031D0000CE01A6822F01E0242F016021A60236CFC
:1031E00023B12268136843F00803136023684D4934
:1031F0004D4A934218BF8B4242D0183293423FD07F
:10320000183293423CD01832934239D0183293424C
:1032100036D01832934233D01832934230D002F570
:10322000567293422CD01832934229D018329342CE
:1032300026D01832934223D01832934220D018322D
:1032400093421DD0183293421AD01832934217D0AD
:10325000364A934214D01432934211D0143293421E
:103260000ED0143293420BD01432934208D0143251
:10327000934205D01432934202D0143293420ED1BD
:10328000236E1A6812F4803F03D01A6842F48072E9
:103290001A60E36E1BB11A6842F480721A602368E8
:1032A0002049214A934218BF8B4230D018329342B2
:1032B0002DD0183293422AD01832934227D0183298
:1032C000934224D01832934221D0183293421ED018
:1032D00002F5567293421AD01832934217D0183220
:1032E000934214D01832934211D0183293420ED028
:1032F000183293420BD01832934208D018329342BE
:1033000005D01A6842F001021A600020DDE61A6852
:1033100042F001021A600020D7E601207047022027
:10332000D3E600BF100002402800024008540258B3
:1033300070B50446FFF7F4F9002C00F091810546C2
:1033400094F83530DBB2022B06D08023636500236E
:1033500084F83430012070BD23688C498C4A934234
:1033600018BF8B4230D0183293422DD0183293427E
:103370002AD01832934227D01832934224D01832E0
:10338000934221D0183293421ED002F556729342D6
:103390001AD01832934217D01832934214D01832F0
:1033A000934211D0183293420ED0183293420BD070
:1033B0001832934208D01832934205D01A6822F08E
:1033C0000E021A60266809E01A6822F01E021A60CE
:1033D0002268536923F080035361266823686B4990
:1033E0006B4A934218BF8B4242D0183293423FD06F
:1033F000183293423CD01832934239D0183293425B
:1034000036D01832934233D01832934230D002F57E
:10341000567293422CD01832934229D018329342DC
:1034200026D01832934223D01832934220D018323B
:1034300093421DD0183293421AD01832934217D0BB
:10344000544A934214D01432934211D0143293420E
:103450000ED0143293420BD01432934208D014325F
:10346000934205D01432934202D01432934204D1D5
:10347000226E136823F48073136023684349444A1F
:10348000934218BF8B422FD0183293422CD018325F
:10349000934229D01832934226D01832934223D037
:1034A0001832934220D0183293421DD002F5567242
:1034B000934219D01832934216D01832934213D047
:1034C0001832934210D0183293420DD018329342E2
:1034D0000AD01832934207D01832934204D01A68A7
:1034E00022F001021A6003E01A6822F001021A6059
:1034F000336813F0010F0ED0FFF712F9431B052BB1
:10350000F6D920236365032384F83530002384F83B
:10351000343001201FE723681C491D4A934218BF1D
:103520008B4239D01832934236D01832934233D07E
:103530001832934230D0183293422DD01832934231
:103540002AD01832934227D002F55672934223D0E4
:103550001832934220D0183293421DD01832934231
:103560001AD01832934217D01832934214D018321E
:10357000934211D0183293420ED0A16DE36D03F047
:103580001F02012393404B600DE000BF100002407A
:103590002800024008540258A16DE36D03F01F0299
:1035A0003F2393408B6023682E492F4A934218BFD4
:1035B0008B4242D0183293423FD0183293423CD0D3
:1035C0001832934239D01832934236D0183293428F
:1035D00033D01832934230D002F5567293422CD039
:1035E0001832934229D01832934226D0183293428F
:1035F00023D01832934220D0183293421DD0183273
:1036000093421AD01832934217D0184A934214D0DA
:103610001432934211D0143293420ED0143293429A
:103620000BD01432934208D01432934205D0143296
:10363000934202D0143293420BD1636EA26E5A6051
:10364000E36E33B11A6822F480721A60236F626FDE
:103650005A60012384F83530002084F834007AE67B
:10366000012078E610000240280002400854025869
:10367000002800F0288108B5024690F83530DBB20A
:10368000022B03D080234365012008BD03689048C6
:1036900090498B4218BF83420CBF0120002065D0A7
:1036A00018318B4262D018318B425FD018318B4277
:1036B0005CD018318B4259D018318B4256D018311A
:1036C0008B4253D001F556718B424FD018318B424B
:1036D0004CD018318B4249D018318B4246D018312A
:1036E0008B4243D018318B4240D018318B423DD0B1
:1036F00018318B423AD0196821F00E011960136815
:10370000734874498B4218BF83426AD072498B4216
:1037100067D018318B4264D018318B4261D0183198
:103720008B425ED018318B425BD018318B4258D01F
:1037300001F556718B4254D018318B4251D018315B
:103740008B424ED018318B424BD018318B4248D02F
:1037500018318B4245D018318B4242D018318B4200
:103760003FD0196821F0010119603EE0042182F880
:10377000351080BB584A93422DD0183293422AD03C
:103780001832934227D01832934224D018329342F1
:1037900021D0183293421ED002F5567293421AD0AD
:1037A0001832934217D01832934214D018329342F1
:1037B00011D0183293420ED0183293420BD01832E7
:1037C000934208D01832934205D01A6822F00102C1
:1037D0001A60002059E71A6822F001021A600020DE
:1037E00053E7196821F00101196013683848394915
:1037F0008B4218BF834242D018318B423FD01831E0
:103800008B423CD018318B4239D018318B4236D0A4
:1038100018318B4233D018318B4230D001F55671BC
:103820008B422CD018318B4229D018318B4226D0B4
:1038300018318B4223D018318B4220D018318B4263
:103840001DD018318B421AD018318B4217D0234922
:103850008B4214D014318B4211D014318B420ED0D4
:1038600014318B420BD014318B4208D014318B426F
:1038700005D014318B4202D014318B4217D1116E16
:103880000B6823F480730B60906DD36D03F01F0100
:1038900001238B404360536E916E5960D36E33B1F8
:1038A000196821F480711960136F516F59600123F9
:1038B00082F83530002382F83430136D2BB1104676
:1038C00098470020E1E6012070470020DDE600BFB8
:1038D00010000240280002404000024008540258F4
:1038E000F0B583B00446002301937D4B1D687D4BEA
:1038F000A3FB0535AD0A876D3E68D7F800C00368A5
:1039000079497A48834218BF8B420CBF01200020BE
:1039100061D0774A93425ED0183293425BD018321E
:10392000934258D01832934255D01832934252D015
:10393000183293424FD002F5567293424BD0183250
:10394000934248D01832934245D01832934242D025
:10395000183293423FD0183293423CD018329342EF
:1039600039D01832934236D06249634A934218BF25
:103970008B4212D0614A93420FD0143293420CD042
:103980001432934209D01432934206D01432934237
:1039900003D01432934240F061821A68E16D01F065
:1039A0001F010420884010EA0C0F00F0A78212F0DB
:1039B000040F00F0A382786012F4004F00F05A82E6
:1039C00012F4803F40F05082A36C002B00F046823E
:1039D0002046984742E2E26D02F01F0108228A4029
:1039E000324241D070BB424A93422BD018329342AC
:1039F00028D01832934225D01832934222D0183260
:103A000093421FD0183293421CD002F55672934253
:103A100018D01832934215D01832934212D018326F
:103A200093420FD0183293420CD01832934209D0EF
:103A30001832934206D01832934203D01A68C2F368
:103A4000C00202E01A68C2F380026AB11A6822F06A
:103A500004021A60E36D03F01F0208239340BB6069
:103A6000636D43F001036365E26D02F01F0226FA05
:103A700002F313F0010F47D023681B481B498B4208
:103A800018BF83423CD018318B4239D018318B4259
:103A900036D018318B4233D018318B4230D01831A8
:103AA0008B422DD018318B422AD001F556718B42B2
:103AB00026D018318B4223D018318B4220D01831B8
:103AC0008B421DD018318B421AD018318B4217D03F
:103AD00018318B4214D018318B4211D01B6813E07F
:103AE00004000024B5814E1B100002402800024053
:103AF00040000240085402581C54025830540258E6
:103B00005B6913F0800F3BD1E36D03F01F030422C8
:103B100002FA03F333423FD02268964896498A421C
:103B200018BF824234D018318A4231D018318A42CB
:103B30002ED018318A422BD018318A4228D0183121
:103B40008A4225D018318A4222D001F556718A4224
:103B50001ED018318A421BD018318A4218D0183131
:103B60008A4215D018318A4212D018318A420FD0B9
:103B700018318A420CD018318A4209D013680BE000
:103B800001239340BB60636D43F002036365BBE7B1
:103B9000126812F0020F3DD1E36D03F01F031022F3
:103BA00002FA03F333425FD02268724872498A42B4
:103BB00018BF824234D018318A4231D018318A423B
:103BC0002ED018318A422BD018318A4228D0183191
:103BD0008A4225D018318A4222D001F556718A4294
:103BE0001ED018318A421BD018318A4218D01831A1
:103BF0008A4215D018318A4212D018318A420FD029
:103C000018318A420CD018318A4209D01268C2F3A6
:103C1000800208E0BB60636D43F004036365BBE7AB
:103C20001268C2F3C002FAB1BB6023681A6812F4CA
:103C3000802F0DD01B6813F4002F04D1236C9BB18F
:103C40002046984710E0A36C73B1204698470BE0DC
:103C50001A6812F4807F03D11A6822F008021A60F1
:103C6000236C0BB120469847E36D03F01F0320221D
:103C700002FA03F3334200F0938022683D483E4944
:103C80008A4218BF82422ED018318A422BD0183176
:103C90008A4228D018318A4225D018318A4222D04F
:103CA00018318A421FD018318A421CD001F5567152
:103CB0008A4218D018318A4215D018318A4212D05F
:103CC00018318A420FD018318A420CD018318A42FA
:103CD00009D018318A4206D018318A4203D01268BE
:103CE000C2F3400202E01268C2F30012002A57D069
:103CF000BB6094F83530DBB2042B0ED023681A6811
:103D000012F4802F3AD01B6813F4002F2DD1636C6E
:103D1000002B45D02046984742E02268136823F0E4
:103D2000160313602268536923F080035361236CE8
:103D3000BBB12268136823F008031360E36D03F03E
:103D40001F023F239340BB60012384F835300023DA
:103D500084F83430236D002B00F080802046984793
:103D60007CE0A36C002BE4D1E8E7E36BC3B1204611
:103D7000984715E010000240280002401A6812F42B
:103D8000807F09D11A6822F010021A60012384F89A
:103D90003530002384F83430E36B0BB1204698476C
:103DA000636D002B5AD0636D13F0010F52D00423C2
:103DB00084F8353023689649964A934218BF8B425F
:103DC0002FD0183293422CD01832934229D0183277
:103DD000934226D01832934223D01832934220D0F7
:103DE000183293421DD002F55672934219D0183200
:103DF000934216D01832934213D01832934210D007
:103E0000183293420DD0183293420AD0183293429E
:103E100007D01832934204D01A6822F001021A60C7
:103E200003E01A6822F001021A60019B013301933A
:103E3000AB4204D823681B6813F0010FF5D1236847
:103E40001B6813F0010F0BD0032384F835300023D7
:103E500084F83430E36C0BB12046984703B0F0BDD2
:103E6000012384F83530F2E7236C002BF6D020468E
:103E70009847F3E712F0200F3AD123686449654A66
:103E8000934218BF8B422FD0183293422CD0183255
:103E9000934229D01832934226D01832934223D02D
:103EA0001832934220D0183293421DD002F5567238
:103EB000934219D01832934216D01832934213D03D
:103EC0001832934210D0183293420DD018329342D8
:103ED0000AD01832934207D01832934204D01A689D
:103EE00022F004021A6003E01A6822F008021A6045
:103EF000236C002BB2D020469847AFE702208840C1
:103F000010EA0C0F60D012F0020F5DD0786012F44E
:103F1000004F0ED012F4803F05D1636C002B9DD072
:103F2000204698479AE7E36B002B97D020469847A6
:103F300094E712F0200F40D123683549354A934267
:103F400018BF8B422FD0183293422CD01832934294
:103F500029D01832934226D01832934223D01832F7
:103F6000934220D0183293421DD002F556729342EC
:103F700019D01832934216D01832934213D0183207
:103F8000934210D0183293420DD0183293420AD087
:103F90001832934207D01832934204D01A6822F0A4
:103FA0000A021A6003E01A6822F014021A60012360
:103FB00084F83530002384F83430E36B002B3FF471
:103FC0004DAF2046984749E7082000FA01F111EA71
:103FD0000C0F3FF443AF12F0080F3FF43FAF1A68E5
:103FE00022F00E021A60E36D03F01F03012202FAB1
:103FF00003F37B60626584F83520002384F8343055
:10400000E36C002B3FF42AAF2046984726E700BF19
:10401000100002402800024030B4416B0468D4F81C
:1040200084306F4A134043EA8103C4F88430046843
:10403000D4F8843023F47F03856B43EA0543C4F846
:104040008430836B0B440468D4F88810114041EA33
:104050008301C4F888100468D4F8881021F4FE01A4
:10406000C56B41EA0541C4F88810C16B03EB4103FD
:104070000468D4F8A010114041EA8301C4F8A010EC
:104080000468D4F8A01021F4FE01056C41EA054152
:10409000C4F8A010016C446C04FB01330468D4F82C
:1040A000B010114041EA8301C4F8B0100468D4F89C
:1040B000B01021F4FE01856C41EA0541C4F8B0104E
:1040C000816CC46C04FB01330468D4F8AC1011405B
:1040D00041EA8301C4F8AC10016D446D04FB013367
:1040E0000468D4F8F010114041EA8301C4F8F010DC
:1040F0000468D4F8F01021F47C11856D41EA054183
:10410000C4F8F010816D03EB41030468D4F8C010CB
:104110000A4042EA8303C4F8C0300268D2F8C030D3
:1041200023F47C13C16D43EA0143C2F8C030026836
:10413000D2F8C03023F07C53016E43EA0163C2F829
:10414000C030436B274A1A449200C266836B02EB6D
:1041500083030367C16B03EBC1034367016C446CCA
:1041600004FB01F103EB81038367816CC46C04FBE6
:1041700001F103EB8103C367016D446D04FB01F1A1
:1041800003EB8103C0F88030816D03EBC103C0F8FD
:104190008430816EC46D01FB04FC03EB8C03C0F81A
:1041A0008830046E04FB01F103EB8103C0F890300A
:1041B0000D498B420DD9D0F89C3043F02003C0F854
:1041C0009C30032380F89830012007E0002342F858
:1041D000043BD0F890309342F8D8002030BC7047B0
:1041E0000300FFFF002B0010FCD3004070B54C68AB
:1041F000FCB90D698C6825430C6845EA84450E6A54
:10420000CC6944EA06648E6934434E693443CE680F
:1042100044EA0644D0F88460806E00FB03F306EBAA
:10422000830E46F82350CEF804400EF1080E00200D
:1042300019E00C698D6825430C68254345F08045DD
:10424000DDE702EB000C9CF803409CF802301B04F5
:1042500043EA04639CF8014043EA0423145C2343CB
:104260004EF8043B0430CB68024CE35C8342E8D850
:1042700070BD00BF1C0A010830B595B004464C2241
:10428000A04901A8FCF762FA002C00F038812368ED
:104290009D4A934220D094F898300BB322689369DA
:1042A00023F010039361FEF73BFA054623689A69F1
:1042B00012F0080F1AD0FEF733FA431B0A2BF5D978
:1042C000D4F89C3043F00103C4F89C30032384F8F5
:1042D0009830012015B030BD03F580736360DAE7D4
:1042E00084F899302046FCF7CDFFD7E79A6942F071
:1042F00001029A61FEF714FA054623689A6912F0E2
:10430000010F0FD1FEF70CFA401B0A28F5D9D4F89B
:104310009C3043F00103C4F89C30032384F89830A8
:104320000120D7E79A6942F002029A61237C012BAF
:1043300040D02268936943F040039361637C012B72
:104340003ED02268936923F480439361A37C012BC0
:104350003CD02268936943F4805393612268936947
:1043600023F44073A1680B4393612268936923F09F
:10437000A40393612268136923F010031361E368B7
:10438000012B29D0002B2CD0022B00F09B8022681F
:10439000936943F0800393612268136943F010032B
:1043A0001361E368032B1CD12268936943F0200357
:1043B000936116E02268936923F040039361BDE79F
:1043C0002268936943F480439361BFE7226893694D
:1043D00023F480539361C1E72268936943F0040397
:1043E0009361A3695A1EE369013B1B0243EA4263DE
:1043F000226A013A13436269013A216843EA02439F
:10440000CB61A368B3F5407F62D0236E33B12268DD
:10441000D2F8C030616E0B43C2F8C030E36D226E3B
:10442000D3420DD02168D1F8C83023F00703A26E23
:1044300014A800EB820252F84C2C1343C1F8C83088
:10444000236C6BB12168D1F8BC3023F00703626C98
:1044500014A800EB820252F84C2C1343C1F8BC3074
:10446000A36C73B12168D1F8BC3023F07003E26C07
:1044700014A800EB820252F84C2C43EA0213C1F854
:10448000BC30236D73B12168D1F8BC3023F4E063F4
:10449000626D14A800EB820252F84C2C43EA02230E
:1044A000C1F8BC302268184B9A4222D00023C4F8CD
:1044B0009430C4F89C30012384F898302046FFF7EC
:1044C000ABFD07E72268936943F02003936188E717
:1044D000A36A013BE26A013A43EA0223226B013AF2
:1044E00043EA0213626A013A216843EA0243CB605D
:1044F0008BE76268936823F003039360D6E701209B
:10450000E8E600BF0008010800A0004090F89830DD
:10451000013BDBB2012B07D9D0F89C3043F00203FA
:10452000C0F89C30012070470B68DBB9CB68072BC3
:104530000ED08A68DB0643EA82730A6943EA0243C3
:104540004A691343C26E496842F82130002070471F
:104550000A69CB691B0243EA02438A69134343F0A9
:104560006053EFE710B4CA680B6943EA4273072A45
:104570000FD04A698C6842EA8472006F496800EB88
:10458000C10C40F83130CCF8042000205DF8044B19
:1045900070478A69F1E790F898C05FFA8CFCBCF12B
:1045A000010F07D0D0F89C3043F00403C0F89C30D2
:1045B00001207047920042EA011242EA4303016877
:1045C000009A1A43C1F880200020704790F8983074
:1045D000DBB2012B07D0D0F89C3043F00403C0F8C5
:1045E0009C3001207047022380F89830026893695C
:1045F00023F0010393610023C0F89C3018467047F4
:1046000038B5044690F89830DBB2022B2BD1036802
:10461000D3F8C00010F07C5F0CD0D3F8C40010F4C5
:10462000001F0FD0D4F89C3043F40073C4F89C30C2
:1046300001201FE0D4F89C3043F02003C4F89C30E4
:10464000012017E0D3F8C450C5F304452B4620469B
:10465000FFF7CCFD22680123AB40C2F8D030C4F88C
:104660009430002006E0D0F89C3043F00803C0F8F6
:104670009C30012038BD000090F898C05FFA8CFC97
:10468000BCF1020F40F0DF8070B540290CD0412909
:104690003DD0046D8C426DD8D0F89C3043F020039F
:1046A000C0F89C300120C1E00468D4F8A05015F493
:1046B000FE0F0CD0D4F8A45015F07F0F0FD1D0F816
:1046C0009C3043F48073C0F89C300120AEE0D0F8F9
:1046D0009C3043F02003C0F89C300120A6E0D4F8C1
:1046E000A46016F0807604D0D4F8A050002D0CDB26
:1046F0000026D4F8A440C4F305242644456F446C36
:1047000006FB04F405EB840E3BE00126F1E70468A8
:10471000D4F8B05015F4FE0F0CD0D4F8B45015F006
:104720007F0F0FD1D0F89C3043F48073C0F89C30D9
:1047300001207BE0D0F89C3043F02003C0F89C308F
:10474000012073E0D4F8B46016F0807604D0D4F879
:10475000B050002D0CDB0026D4F8B440C4F305247F
:104760002644856FC46C06FB04F405EB840E08E058
:104770000126F1E7C56F446D01FB04F405EB840EDF
:104780000026DEF8004004F08044546064BBDEF88C
:104790000040C4F38A441460DEF8004004F0005482
:1047A0009460DEF8004004F000441461BEF8044058
:1047B000D461BEF8064004F00F04D460DEF8044073
:1047C00004F480145461DEF8044004F4001494618D
:1047D0009EF8074004F07F041462DEF80440E40F02
:1047E00054624FF0000C0CE0DEF8004024F060440E
:1047F0001460D1E70EEB0C04247A03F80C400CF1A2
:10480000010CD468144D2C5D6445F3D8402909D0BF
:1048100041290CD01F290ED8026801238B40C2F811
:10482000983002E00368C3F8A860002070BD0368F8
:10483000C3F8B860F9E701F01F01026801238B405B
:10484000C2F89C30F1E7D0F89C3043F00803C0F880
:104850009C300120704700BF1C0A010890F8983076
:10486000013BDBB2012B07D9D0F89C3043F00203A7
:10487000C0F89C300120704710B403689C6D0C4256
:1048800024D1DC6D44F00104DC6511F4007F05D017
:104890000468D4F8E0301343C4F8E03011F4806FBA
:1048A00005D00468D4F8E4301343C4F8E430006859
:1048B000436D0C4A0A40134343650B4A536943EA6C
:1048C0009173536100205DF8044B70479C6D31EA91
:1048D000040402D00324DC65D7E7DC6D44F0020455
:1048E000DC65D2E7FFFFCF3F00A80040704770476C
:1048F0007047704770477047704770477047704700
:104900007047704770477047704700002DE9F04FBF
:1049100083B00446904B1A695B69134001939B076F
:10492000009303681A6D02F4704A5A6D0AEA020A8B
:104930001A6D02F00F095A6D09EA02091A6D02F0A8
:10494000F0085A6D08EA02081E6D06F071565A6D9D
:1049500016401F6D07F060775A6D17405D6DD3F8F4
:1049600050B015F4807F02D01BF4807F64D115F421
:10497000806F02D01BF4806F67D1009B002B74D135
:10498000BAF1000F7ED1B9F1000F40F08780B8F185
:10499000000F40F08F8015F4006F03D01BF4006F00
:1049A00040F0948015F4007F03D01BF4007F40F0AA
:1049B000988015F4002F03D01BF4002F40F0A18045
:1049C00015F4803F03D01BF4803F40F0A58015F420
:1049D000802F03D01BF4802F40F0A98015F4003FF6
:1049E0000FD01BF4003F0CD023684FF400321A653F
:1049F000594B00221A61D4F89C3043F08003C4F86C
:104A00009C30002F40F09E804EB123681E65B20F8F
:104A1000514B1A61D4F89C303343C4F89C3022685F
:104A20004E4B9A4200F09C80D4F89C30002B40F012
:104A3000F98003B0BDE8F08F4FF480721A65464BE1
:104A400000221A61FFF75AFF91E72368D3F8DC10C0
:104A5000D3F8E4204FF4806018653F4B00201861C4
:104A600011402046FFF746FF87E7236800221A65BA
:104A7000019B03F00303384A136100992046FFF7B6
:104A800035FF7DE72368C3F850A04FEA9A72324B96
:104A90001A6151462046FFF72AFF74E72368C3F8DE
:104AA00050904FEA99722C4B1A614946204604F007
:104AB00093FA6CE72368C3F850804FEA9872264B4C
:104AC0001A614146204604F0B3FA64E723684FF4C4
:104AD00000621A65204B00221A612046FFF708FF8A
:104AE00060E72368D3F8D810D3F8E0204FF40070C3
:104AF0001865194B0020186111402046FFF7F9FE98
:104B000057E723684FF400221A65134B00221A61FD
:104B10002046FFF7F0FE53E723684FF480321A6512
:104B20000D4B00221A612046FFF7E6FE4FE723688F
:104B30004FF480221A65084B00221A612046FFF7C5
:104B4000DCFE4BE723681F65BA0F034B1A61394639
:104B50002046FFF7D5FE57E700A8004000A0004020
:104B600063689A6812F0030F3FF45EAF196A01F0B0
:104B70000F015A6A186A00F03008586A08EA0008FB
:104B80001F6A07F4C077586A07401E6A06F4FC469D
:104B9000586A06401D6A05F4F025586A0540D3F8A6
:104BA0002490D3F820A011401CD1B8F1000F1ED1E1
:104BB00019F0400F02D01AF0400F20D15FBB36B180
:104BC00063681E62D4F89C303343C4F89C30002DD7
:104BD0003FF42AAF63681D62D4F89C302B43C4F8BD
:104BE0009C3021E719622046FFF78BFEDDE7636802
:104BF000C3F8208041462046FFF784FED8E763686B
:104C0000D96BDA6B4020186202F03F02090C204693
:104C1000FFF779FED2E763681F6239462046FFF747
:104C200073FECCE72046FFF76AFE02E7F0B583B0DB
:104C300000236BE085685E000324B44025EA040588
:104C4000CC68B4402C438460456825EA0C054C6868
:104C5000C4F300149C402C43446069E0DD0808352F
:104C600050F8254003F0070C4FEA8C0C4FF00F0E64
:104C70000EFA0CFE24EA0E0E0C6904FA0CF444EA57
:104C80000E0440F825406BE0092400E0002404FAFB
:104C90000EF42C430CF1020C664D45F82C404FF0FD
:104CA000B0442568D44325EA02064F6817F4801FF4
:104CB00001D042EA05064FF0B0452E606D6804EA67
:104CC00005064F6817F4001F01D042EA05064FF0B1
:104CD000B0456E60D5F8845004EA05064F6817F4B5
:104CE000003F01D042EA05064FF0B045C5F88460A8
:104CF000D5F880502C404E6816F4803F01D042EA2F
:104D000005044FF0B042C2F8804001330A6832FA1D
:104D100003F400F08C804FF0010C0CFA03FC1CEA49
:104D20000202F2D04C6804F00304013C012C81D94A
:104D30004C6804F00304032C0CD0C4685D004FF0F1
:104D4000030C0CFA05FC24EA0C0C8C68AC4044EA19
:104D50000C04C4604C6804F00304022C3FF47EAFE2
:104D600004684FEA430E4FF0030C0CFA0EFC24EAE1
:104D70000C0C4C6804F0030404FA0EF444EA0C042E
:104D800004604C6814F4403FBFD02B4CD4F8F4506E
:104D900045F00205C4F8F450D4F8F44004F00204DD
:104DA0000194019C4FEA930C0CF10205214C54F83C
:104DB000255003F0030E4FEA8E0E0F2404FA0EF472
:104DC00025EA04051D4CA0423FF460AF04F5806461
:104DD000A0421ED004F58064A0421CD004F580647B
:104DE000A0421AD004F58064A04218D004F5806473
:104DF000A04216D004F58064A04214D004F580646B
:104E0000A04212D004F50064A0423FF43DAF0A2452
:104E10003DE701243BE7022439E7032437E7042474
:104E200035E7052433E7062431E707242FE703B0ED
:104E3000F0BD00BF000400580044025800000258B2
:104E40000AB181617047090481617047436901EAD1
:104E5000030221EA030141EA024181617047000037
:104E6000134BDB6813F0040F07D1114BDB6803F021
:104E7000070383421AD00120704710B50C4AD3684B
:104E800023F007030343D360FDF74AFC0446084BB5
:104E90005B6813F4005F07D1FDF742FC001BB0F51F
:104EA0007A7FF4D9012000E0002010BD0020704777
:104EB00000480258002800F0D58238B5044603683F
:104EC00013F0010F25D0A04A136903F03803926A4A
:104ED000102B15D0182B0FD06368B3F5803F3FD04F
:104EE000002B53D1984B1A6822F480321A601A684A
:104EF00022F480221A6038E002F00302022AEBD189
:104F0000914B1B6813F4003F03D06368002B00F043
:104F1000AB82236813F0020F00F088808A4A13697D
:104F2000926A13F038035AD0182B55D0E368002B3F
:104F300000F0A98084490A6822F0190213430B602B
:104F4000FDF7EEFB0546804B1B6813F0040F40F0A5
:104F50009180FDF7E5FB401B0228F4D903208AE28B
:104F6000794A136843F48033136063682BB3FDF709
:104F7000D7FB0546744B1B6813F4003FC9D1FDF7FE
:104F8000CFFB401B6428F5D9032074E2B3F5A02FB2
:104F900009D06D4B1A6822F480321A601A6822F424
:104FA00080221A60E1E7684B1A6842F480221A6096
:104FB0001A6842F480321A60D7E7FDF7B1FB054664
:104FC000614B1B6813F4003FA3D0FDF7A9FB401B06
:104FD0006428F5D903204EE212F0030FA6D15A4BF4
:104FE0001B6813F0040F03D0E368002B00F03E822F
:104FF000554A136823F01903E1680B431360FDF76A
:105000008FFB0546504B1B6813F0040F06D1FDF7CC
:1050100087FB401B0228F5D903202CE24A4A53683B
:1050200023F0FE43216943EA01635360236813F0D0
:10503000100F51D0444A136903F03803926A082BC9
:1050400039D0182B33D0E369002B69D03E4A13685E
:1050500043F080031360FDF763FB05463A4B1B6882
:1050600013F4807F53D1FDF75BFB401B0228F5D979
:10507000032000E2344A536823F0FE43216943EAE7
:1050800001635360D2E7304A136823F001031360D1
:10509000FDF746FB05462C4B1B6813F0040FC5D0EB
:1050A000FDF73EFB401B0228F5D90320E3E102F0A7
:1050B0000302012AC7D1244B1B6813F4807F03D05D
:1050C000E369802B40F0D4811F4AD36823F07C53DE
:1050D000216A43EA0163D360236813F0080F49D0C3
:1050E0006369002B32D0184A536F43F001035367B2
:1050F000FDF716FB0546144B5B6F13F0020F39D119
:10510000FDF70EFB401B0228F5D90320B3E10E4A40
:10511000D36823F07C53216A43EA0163D360DBE761
:10512000094A136823F080031360FDF7F9FA054676
:10513000054B1B6813F4807FCED0FDF7F1FA401BBE
:105140000228F5D9032096E1004402589D4A536F86
:1051500023F001035367FDF7E3FA0546994B5B6FB4
:1051600013F0020F06D0FDF7DBFA401B0228F5D939
:10517000032080E1236813F0200F29D0A3699BB19D
:10518000904A136843F480531360FDF7C9FA05464B
:105190008C4B1B6813F4005F1AD1FDF7C1FA401B5A
:1051A0000228F5D9032066E1864A136823F4805368
:1051B0001360FDF7B5FA0546824B1B6813F4005FD8
:1051C00006D0FDF7ADFA401B0228F5D9032052E1C5
:1051D000236813F0040F21D1636A002B00F04A8189
:1051E000784A126902F03802182A00F0F180022B86
:1051F00075D0744A136823F080731360FDF790FA3A
:105200000446704B1B6813F0007F00F0D880FDF758
:1052100087FA001B0228F4D903202CE16A4A13689C
:1052200043F480731360FDF77BFA0546664B1B68F9
:1052300013F4807F06D1FDF773FA401B6428F5D97B
:10524000032018E1A368012B0AD00BBB5D4B1A6F3A
:1052500022F001021A671A6F22F004021A6704E0B2
:10526000584A136F43F001031367A36833B3FDF784
:1052700057FA0546534B1B6F13F0020FACD1FDF7E5
:105280004FFA401B41F288339842F3D90320F2E0F1
:10529000052B09D04B4B1A6F22F001021A671A6FC7
:1052A00022F004021A67E0E7464B1A6F42F004024C
:1052B0001A671A6F42F001021A67D6E7FDF730FA53
:1052C0000546404B1B6F13F0020F85D0FDF728FAFF
:1052D000401B41F288339842F3D90320CBE0394A8E
:1052E000136823F080731360FDF71AFA0546354BF7
:1052F0001B6813F0007F06D0FDF712FA401B02284E
:10530000F5D90320B7E02F4B996A304A0A40A16AC9
:10531000E06A41EA00110A439A62226B013AC2F341
:105320000802616B0139490289B20A43A16B013954
:10533000090401F4FE010A43E16B0139090601F099
:10534000FE410A431A63DA6A22F00102DA625A6BFA
:105350006FF3CF02A16C42EAC1025A63DA6A22F00B
:105360000C02216C0A43DA62DA6A22F00202616CF2
:105370000A43DA62DA6A42F48032DA62DA6A42F4C2
:105380000032DA62DA6A42F48022DA62DA6A42F0E1
:105390000102DA621A6842F080721A60FDF7C0F901
:1053A0000446084B1B6813F0007F06D1FDF7B8F9DF
:1053B000001B0228F5D903205DE000205BE00020FF
:1053C00059E000BF00440258004802580CFCFFFF9F
:1053D00030498A6A086B012B4ED002F00303A16AA0
:1053E0008B424BD1C2F30512E36A9A4248D1C0F313
:1053F0000802236B013B9A4244D1C0F34622636BFF
:10540000013B9A4240D1C0F30642A36B013B9A4252
:105410003CD1C0F30660E36B013B984238D11D4B91
:105420005B6BC3F3CC03A26C9A4201D1002022E053
:10543000184AD36A23F00103D362FDF771F90546D8
:10544000FDF76EF9A842FBD0124A536B6FF3CF03FE
:10545000A16C43EAC1035363D36A43F00103D362EF
:10546000002008E001207047012004E0012002E054
:10547000012000E0002038BD0120FCE70120FAE710
:105480000120F8E70120F6E70120F4E70120F2E728
:105490000120F0E700440258754B1B6903F0380304
:1054A000102B00F0DE80182B0FD0002B40F0DB809B
:1054B0006F4B1B6813F0200F00F0D7806C4B1B68FC
:1054C000C3F3C1036B48D840704710B4684B9A6A65
:1054D00002F003029C6AC4F30510D96A01F00101CD
:1054E0005B6BC3F3CC0301FB03F307EE903AF8EEDA
:1054F000677A14F47C7F77D0012A4AD0022A76D0CA
:10550000002A40F091805A4B1B6813F0200F23D0E3
:1055100057490A68C2F3C102564BD34007EE103A0E
:10552000F8EE476A07EE100AB8EE476A86EE867A0A
:105530000B6BC3F3080306EE903AF8EE666A9FED34
:105540004E6A67EE867A76EEA77AF7EE006A77EE15
:10555000A67A27EE277A38E007EE100AF8EE476AB7
:105560009FED466A86EE267A414B1B6BC3F3080318
:1055700006EE903AF8EE666A9FED3F6A67EE867A2D
:1055800076EEA77AF7EE006A77EEA67A27EE277A0C
:105590001BE007EE100AF8EE476A9FED396A86EEC7
:1055A000267A334B1B6BC3F3080306EE903AF8EEF2
:1055B000666A9FED316A67EE867A76EEA77AF7EE35
:1055C000006A77EEA67A27EE277A294B1B6BC3F386
:1055D0004623013307EE903AF8EE677AC7EE276A62
:1055E000FCEEE67A17EE900A5DF8044B704707EE82
:1055F000100AF8EE476A9FED236A86EE267A1C4B66
:105600001B6BC3F3080306EE903AF8EE666A9FED53
:105610001A6A67EE867A76EEA77AF7EE006A77EE78
:10562000A67A27EE277AD0E707EE100AF8EE476A47
:105630009FED136A86EE267A0D4B1B6BC3F30803AE
:1056400006EE903AF8EE666A9FED0B6A67EE867A90
:1056500076EEA77AF7EE006A77EEA67A27EE277A3B
:10566000B3E709487047094870470248704700BFD0
:10567000004402580090D003000000390024744C0C
:105680000024744A001BB74B00366E0100093D0030
:10569000002800F0328170B50D4604469B4B1B6814
:1056A00003F00F038B420BD2984A136823F00F03C9
:1056B0000B431360136803F00F038B4240F01F810C
:1056C000236813F0040F0CD02269914B9B6903F0FF
:1056D00070039A4205D98E498B6923F070031A43EF
:1056E0008A61236813F0080F0CD06269884BDB696C
:1056F00003F070039A4205D98549CB6923F0700302
:105700001A43CA61236813F0100F0CD0A269804BB2
:10571000DB6903F4E0639A4205D97D49CB6923F440
:10572000E0631A43CA61236813F0200F0CD0E269CA
:10573000774B1B6A03F070039A4205D974490B6AD0
:1057400023F070031A430A62236813F0020F0CD08F
:10575000E2686F4B9B6903F00F039A4205D96C49CD
:105760008B6923F00F031A438A61236813F0010F3A
:1057700041D0674A936923F47063A1680B43936136
:105780006368022B0AD0032B27D0012B2CD0604A50
:10579000126812F0040F06D10120ADE0126812F475
:1057A000003F00F0AE805A490A6922F00702134315
:1057B0000B61FCF7B5FF0646554B1B6903F0380338
:1057C0006268B3EBC20F16D0FCF7AAFF801B41F250
:1057D00088339842F0D903208EE04D4A126812F0C7
:1057E000007FE0D1012087E0494A126812F4807FEF
:1057F000D9D1012080E0236813F0020F0CD0E268B9
:10580000434B9B6903F00F039A4205D240498B69D1
:1058100023F00F031A438A613C4B1B6803F00F030C
:10582000AB420AD9394A136823F00F032B431360A4
:10583000136803F00F03AB4265D1236813F0040F24
:105840000CD02269324B9B6903F070039A4205D257
:105850002F498B6923F070031A438A61236813F080
:10586000080F0CD062692A4BDB6903F070039A427F
:1058700005D22749CB6923F070031A43CA61236814
:1058800013F0100F0CD0A269214BDB6903F4E06325
:105890009A4205D21E49CB6923F4E0631A43CA61D8
:1058A000236813F0200F0CD0E269194B1B6A03F038
:1058B00070039A4205D216490B6A23F070031A430B
:1058C0000A62FFF7E9FD12498B69C3F30323114A0A
:1058D000D35C03F01F03D8408B6903F00F03D35C44
:1058E00003F01F0320FA03F30B4A13600B4B1860FD
:1058F0000B4B1868FCF7B2FE70BD01207047012009
:10590000FAE70120F8E70120F6E700BF0020005287
:1059100000440258040A0108000000240400002486
:105920000C00002408B5FFF7B7FD0B4A9369C3F3D9
:1059300003230A49CB5C03F01F0320FA03F39269A7
:1059400002F00F02885C00F01F0023FA00F0044A06
:105950001060044A136008BD00440258040A01089C
:10596000000000240400002408B5FFF7DBFF054B0E
:10597000DB69C3F30213044AD35C03F01F03D8406E
:1059800008BD00BF00440258040A010808B5FFF72B
:10599000C9FF054BDB69C3F30223044AD35C03F060
:1059A0001F03D84008BD00BF00440258040A010884
:1059B000404B9B6A03F00303032B79D070B5054677
:1059C0000E463C4A136823F080631360FCF7A8FE80
:1059D0000446384B1B6813F0006F06D0FCF7A0FE9E
:1059E000031B022BF5D9032070BD324B9A6A22F4B7
:1059F0007C32296842EA01329A626A68013AC2F34B
:105A00000802A9680139490289B20A43E9680139E3
:105A1000090401F4FE010A4329690139090601F06C
:105A2000FE410A439A63DA6A22F0C00269690A43B6
:105A3000DA62DA6A22F02002A9690A43DA62DA6AD3
:105A400022F01002DA62DA6B6FF3CF02E96942EA00
:105A5000C102DA63DA6A42F01002DA62C6B91A46A3
:105A6000DB6A43F40023D362124A136843F0806375
:105A70001360FCF755FE04460E4B1B6813F0006FD5
:105A800014D1FCF74DFE001B0228F5D90320ABE72B
:105A9000012E05D0074AD36A43F40013D362E3E72B
:105AA000044AD36A43F48013D362DDE700209BE706
:105AB0000120704700440258404B9B6A03F00303E7
:105AC000032B79D070B505460E463C4A136823F087
:105AD00080531360FCF724FE0446384B1B6813F018
:105AE000005F06D0FCF71CFE031B022BF5D9032038
:105AF00070BD324B9A6A22F07C72296842EA0152E8
:105B00009A626A68013AC2F30802A9680139490237
