:020000040800F2
:100000000000052475290008E11C0008E31C000815
:10001000E51C0008E71C0008E91C000800000000BF
:10002000000000000000000000000000EB1C0008C1
:10003000ED1C000800000000EF1C0008F11C000887
:10004000C5290008C5290008C5290008C5290008D8
:10005000C5290008C5290008C5290008C5290008C8
:10006000C5290008C5290008C5290008F91C000891
:10007000091D0008191D0008291D0008391D000868
:10008000491D0008591D0008C5290008691D000800
:10009000791D0008C5290008C5290008C5290008E0
:1000A000C5290008C5290008C5290008C529000878
:1000B000C5290008C5290008C5290008C529000868
:1000C000C5290008C5290008C5290008C529000858
:1000D000C5290008C5290008891D0008991D0008C8
:1000E000C5290008C529000800000000C52900082E
:1000F000C5290008A91D0008C5290008B91D000868
:10010000C5290008C5290008C5290008C529000817
:10011000C91D0008C5290008C5290008C52900080F
:10012000D91D0008E91D0008C5290008C5290008D7
:10013000C5290008C5290008C5290008C5290008E7
:1001400000000000000000000000000000000000AF
:10015000C5290008C5290008C5290008C5290008C7
:10016000C5290008C5290008C5290008C5290008B7
:10017000C5290008C5290008C5290008000000009D
:10018000C5290008C5290008F91D0008C52900086F
:10019000C5290008C5290008C5290008C529000887
:1001A000C5290008C5290008C5290008000000006D
:1001B000C5290008C5290008C5290008C529000867
:1001C000C5290008C5290008000000000000000043
:1001D0000000000000000000C52900080000000029
:1001E000000000000000000000000000000000000F
:1001F0000000000000000000C5290008C529000813
:10020000C5290008C529000800000000C52900080C
:10021000C5290008C5290008C5290008C529000806
:10022000C529000800000000C529000800000000E2
:10023000C5290008C529000800000000C5290008DC
:10024000C5290008C5290008C5290008C5290008D6
:10025000C5290008C5290008C5290008C5290008C6
:10026000C5290008C5290008C5290008C5290008B6
:10027000C5290008C5290008C5290008000000009C
:10028000C5290008C5290008C5290008C529000896
:1002900000000000C5290008C52900080000000072
:1002A00000000000C5290008C5290008091E000833
:1002B000191E0008C5290008C5290008291E0008C4
:0C02C000C5290008C5290008C529000850
:1003000081F0004102E000BF83F0004330B54FEAC6
:1003100041044FEA430594EA050F08BF90EA020F33
:100320001FBF54EA000C55EA020C7FEA645C7FEAC6
:10033000655C00F0E2804FEA5454D4EB5555B8BFE9
:100340006D420CDD2C4480EA020281EA030382EA5A
:10035000000083EA010180EA020281EA0303362DEC
:1003600088BF30BD11F0004F4FEA01314FF4801CBF
:100370004CEA113102D0404261EB410113F0004FD1
:100380004FEA03334CEA133302D0524263EB430388
:1003900094EA050F00F0A780A4F10104D5F1200E26
:1003A0000DDB02FA0EFC22FA05F2801841F1000181
:1003B00003FA0EF2801843FA05F359410EE0A5F155
:1003C00020050EF1200E012A03FA0EFC28BF4CF086
:1003D000020C43FA05F3C01851EBE37101F000453C
:1003E00007D54FF0000EDCF1000C7EEB00006EEB49
:1003F0000101B1F5801F1BD3B1F5001F0CD34908D3
:100400005FEA30004FEA3C0C04F101044FEA445229
:1004100012F5800F80F09A80BCF1004F08BF5FEAB0
:10042000500C50F1000041EB045141EA050130BD90
:100430005FEA4C0C404141EB0101013C28BFB1F5A2
:10044000801FE9D291F0000F04BF01460020B1FAED
:1004500081F308BF2033A3F10B03B3F120020CDAC0
:100460000C3208DD02F1140CC2F10C0201FA0CF09E
:1004700021FA02F10CE002F11402D8BFC2F1200C03
:1004800001FA02F120FA0CFCDCBF41EA0C019040B9
:10049000E41AA2BF01EB0451294330BD6FEA040402
:1004A0001F3C1CDA0C340EDC04F11404C4F12002ED
:1004B00020FA04F001FA02F340EA030021FA04F3FF
:1004C00045EA030130BDC4F10C04C4F1200220FA56
:1004D00002F001FA04F340EA0300294630BD21FA94
:1004E00004F0294630BD94F0000F83F4801306BF5A
:1004F00081F480110134013D4EE77FEA645C18BF4E
:100500007FEA655C29D094EA050F08BF90EA020FE4
:1005100005D054EA000C04BF1946104630BD91EADC
:10052000030F1EBF0021002030BD5FEA545C05D1DF
:100530004000494128BF41F0004130BD14F580041E
:100540003CBF01F5801130BD01F0004545F0FE4192
:1005500041F470014FF0000030BD7FEA645C1ABFC7
:10056000194610467FEA655C1CBF0B46024650EAFE
:10057000013406BF52EA033591EA030F41F400212A
:1005800030BD00BF90F0000F04BF0021704730B5B0
:100590004FF4806404F132044FF000054FF0000185
:1005A00050E700BF90F0000F04BF0021704730B546
:1005B0004FF4806404F1320410F0004548BF40421B
:1005C0004FF000013EE700BF42004FEAE2014FEA70
:1005D00031014FEA02701FBF12F07F4393F07F4F4B
:1005E00081F06051704732F07F4208BF704793F04E
:1005F0007F4F04BF41F40021704730B54FF4607461
:1006000001F0004521F000411CE700BF50EA010263
:1006100008BF704730B54FF000050AE050EA01020C
:1006200008BF704730B511F0004502D5404261EB7C
:1006300041014FF4806404F132045FEA915C3FF4BD
:10064000D8AE4FF003025FEADC0C18BF03325FEA5A
:10065000DC0C18BF033202EBDC02C2F1200300FA0B
:1006600003FC20FA02F001FA03FE40EA0E0021FA30
:1006700002F11444BDE600BF80F0004002E000BF7C
:1006800081F0004142001FBF5FEA410392EA030F7D
:100690007FEA226C7FEA236C6AD04FEA1262D2EBC7
:1006A0001363C1BFD218414048404140B8BF5B42CC
:1006B000192B88BF704710F0004F40F4000020F065
:1006C0007F4018BF404211F0004F41F4000121F07B
:1006D0007F4118BF494292EA030F3FD0A2F10102C5
:1006E00041FA03FC10EB0C00C3F1200301FA03F103
:1006F00000F0004302D5494260EB4000B0F5000F26
:1007000013D3B0F1807F06D340084FEA310102F1E4
:100710000102FE2A51D2B1F1004F40EBC25008BF96
:1007200020F0010040EA03007047490040EB000060
:10073000013A28BFB0F5000FEDD2B0FA80FCACF161
:10074000080CB2EB0C0200FA0CF0AABF00EBC2508E
:1007500052421843BCBFD0401843704792F0000F7C
:1007600081F4000106BF80F400000132013BB5E7CF
:100770004FEA41037FEA226C18BF7FEA236C21D045
:1007800092EA030F04D092F0000F08BF08467047AA
:1007900090EA010F1CBF0020704712F07F4F04D178
:1007A000400028BF40F00040704712F100723CBF8B
:1007B00000F50000704700F0004343F0FE4040F4B5
:1007C000000070477FEA226216BF08467FEA236373
:1007D0000146420206BF5FEA412390EA010F40F45E
:1007E000800070474FF0000304E000BF10F00043AA
:1007F00048BF40425FEA000C08BF704743F0964391
:1008000001464FF000001CE050EA010208BF7047AB
:100810004FF000030AE000BF50EA010208BF704732
:1008200011F0004302D5404261EB41015FEA010C47
:1008300002BF84460146002043F0B64308BFA3F13F
:100840008053A3F50003BCFA8CF2083AA3EBC25321
:1008500010DB01FA02FC634400FA02FCC2F1200240
:10086000BCF1004F20FA02F243EB020008BF20F077
:100870000100704702F1200201FA02FCC2F12002DD
:1008800050EA4C0021FA02F243EB020008BF20EAD2
:10089000DC7070474FF0FF0C1CEAD0521EBF1CEA00
:1008A000D15392EA0C0F93EA0C0F6FD01A4480EAEE
:1008B000010C400218BF5FEA41211ED04FF00063D7
:1008C00043EA501043EA5111A0FB01310CF0004003
:1008D000B1F5000F3EBF490041EAD3715B0040EA29
:1008E000010062F17F02FD2A1DD8B3F1004F40EBF9
:1008F000C25008BF20F00100704790F0000F0CF0CC
:10090000004C08BF49024CEA502040EA51207F3A8F
:10091000C2BFD2F1FF0340EAC250704740F400006A
:100920004FF00003013A5DDC12F1190FDCBF00F05B
:1009300000407047C2F10002410021FA02F1C2F109
:10094000200200FA02FC5FEA310040F1000053EAA5
:100950004C0308BF20EADC70704792F0000F00F0F3
:10096000004C02BF400010F4000F013AF9D040EAF9
:100970000C0093F0000F01F0004C02BF490011F48D
:10098000000F013BF9D041EA0C018FE70CEAD1538B
:1009900092EA0C0F18BF93EA0C0F0AD030F0004C0B
:1009A00018BF31F0004CD8D180EA010000F00040BF
:1009B000704790F0000F17BF90F0004F084691F07D
:1009C000000F91F0004F14D092EA0C0F01D14202B7
:1009D0000FD193EA0C0F03D14B0218BF084608D180
:1009E00080EA010000F0004040F0FE4040F40000CA
:1009F000704740F0FE4040F4400070474FF0FF0C5D
:100A00001CEAD0521EBF1CEAD15392EA0C0F93EAA3
:100A10000C0F69D0A2EB030280EA010C49024FEAF5
:100A2000402037D04FF0805343EA111143EA1013AE
:100A30000CF000408B4238BF5B0042F17D024FF466
:100A4000000C8B4224BF5B1A40EA0C00B3EB510F41
:100A500024BFA3EB510340EA5C00B3EB910F24BF2A
:100A6000A3EB910340EA9C00B3EBD10F24BFA3EBAF
:100A7000D10340EADC001B0118BF5FEA1C1CE0D177
:100A8000FD2A3FF650AF8B4240EBC25008BF20F02A
:100A9000010070470CF0004C4CEA50207F32C2BF7E
:100AA000D2F1FF0340EAC250704740F400004FF01B
:100AB0000003013A37E792F0000F00F0004C02BF4C
:100AC000400010F4000F013AF9D040EA0C0093F016
:100AD000000F01F0004C02BF490011F4000F013B70
:100AE000F9D041EA0C0195E70CEAD15392EA0C0FD8
:100AF00008D142027FF47DAF93EA0C0F7FF470AF10
:100B0000084676E793EA0C0F04D14B023FF44CAF52
:100B100008466EE730F0004C18BF31F0004CCAD1E7
:100B200030F000427FF45CAF31F000437FF43CAF23
:100B30005FE700BF4FF0FF3C06E000BF4FF0010C45
:100B400002E000BF4FF0010C4DF804CD4FEA400227
:100B50004FEA41037FEA226C18BF7FEA236C11D071
:100B600001B052EA530C18BF90EA010F58BFB2EB24
:100B7000030088BFC81738BF6FEAE17018BF40F0A4
:100B8000010070477FEA226C02D15FEA402C05D158
:100B90007FEA236CE4D15FEA412CE1D05DF8040BDD
:100BA000704700BF844608466146FFE70FB5FFF770
:100BB000C9FF002848BF10F1000F0FBD4DF808ED28
:100BC000FFF7F4FF0CBF012000205DF808FB00BF19
:100BD0004DF808EDFFF7EAFF34BF012000205DF873
:100BE00008FB00BF4DF808EDFFF7E0FF94BF0120C0
:100BF00000205DF808FB00BF4DF808EDFFF7D2FFBD
:100C000094BF012000205DF808FB00BF4DF808EDFF
:100C1000FFF7C8FF34BF012000205DF808FB00BFCC
:100C20004FEA4002B2F1FE4F0FD34FF09E03B3EBF9
:100C300012620DD94FEA002343F0004310F0004F39
:100C400023FA02F018BF404270474FF0000070478F
:100C500012F1610F01D1420205D110F0004008BF2E
:100C60006FF0004070474FF00000704742000ED216
:100C7000B2F1FE4F0BD34FF09E03B3EB126209D4D7
:100C80004FEA002343F0004323FA02F070474FF08D
:100C90000000704712F1610F01D1420202D14FF002
:100CA000FF3070474FF00000704700BF53B94AB99A
:100CB000002908BF00281CBF4FF0FF314FF0FF3064
:100CC00000F00CB8ADF1080C6DE904CE08F086FC1C
:100CD000DDF804E0DDE9022304B07047704700BF8F
:100CE000844641EA000313F003036DD1403A41D337
:100CF00051F8043B40F8043B51F8043B40F8043BF6
:100D000051F8043B40F8043B51F8043B40F8043BE5
:100D100051F8043B40F8043B51F8043B40F8043BD5
:100D200051F8043B40F8043B51F8043B40F8043BC5
:100D300051F8043B40F8043B51F8043B40F8043BB5
:100D400051F8043B40F8043B51F8043B40F8043BA5
:100D500051F8043B40F8043B51F8043B40F8043B95
:100D600051F8043B40F8043B51F8043B40F8043B85
:100D7000403ABDD2303211D351F8043B40F8043B25
:100D800051F8043B40F8043B51F8043B40F8043B65
:100D900051F8043B40F8043B103AEDD20C3205D335
:100DA00051F8043B40F8043B043AF9D2043208D02D
:100DB000D2071CBF11F8013B00F8013B01D30B889F
:100DC00003806046704700BF082A13D38B078DD07D
:100DD00010F003038AD0C3F10403D21ADB071CBF4F
:100DE00011F8013B00F8013B80D331F8023B20F8B9
:100DF000023B7BE7043AD9D3013A11F8013B00F8F2
:100E0000013BF9D20B7803704B7843708B78837079
:100E10006046704700000000000000000000000075
:100E200001F0FF01102A2BDB10F0070F08D010F89B
:100E3000013B013A8B422DD010F0070F42B3F6D19F
:100E4000F0B441EA012141EA014122F007047FF0B8
:100E500000070023F0E80256083C85EA010586EA0F
:100E6000010685FA47F5A3FA87F586FA47F6A5FA4B
:100E700087F68EB9EED1F0BC01F0FF0102F0070257
:100E800032B110F8013B013A83EA010313B1F8D102
:100E90000020704701387047002D06BF35460338E3
:100EA000073815F0010F07D1013015F4807F02BF1C
:100EB000013015F4C03F0130F0BC0138704700BF6D
:100EC00030B490F800F020F007016FF0000C10F043
:100ED000070491F820F040F048804FF000046FF0D4
:100EE0000700D1E9002391F840F000F1080082FAF0
:100EF0004CF2A4FA8CF283FA4CF3A2FA8CF34BBBBB
:100F0000D1E9022382FA4CF200F10800A4FA8CF233
:100F100083FA4CF3A2FA8CF3E3B9D1E9042382FA01
:100F20004CF200F10800A4FA8CF283FA4CF3A2FA16
:100F30008CF37BB9D1E9062301F1200182FA4CF24E
:100F400000F10800A4FA8CF283FA4CF3A2FA8CF3B5
:100F5000002BC6D0002A04BF04301A4612BAB2FAD7
:100F600082F200EBD20030BC7047D1E9002304F0DC
:100F70000305C4F100004FEAC50514F0040F91F811
:100F800040F00CFA05F562EA05021CBF63EA0503AE
:100F900062464FF00004AAE770B54FF0FF0C4CF426
:100FA000E06C1CEA11541DBF1CEA135594EA0C0FA7
:100FB00095EA0C0F00F0DEF82C4481EA030621EAE2
:100FC0004C5123EA4C5350EA013518BF52EA03351D
:100FD00041F4801143F4801338D0A0FB02CE4FF0CF
:100FE0000005E1FB02E506F00042E0FB03E54FF0FF
:100FF0000006E1FB03569CF0000F18BF4EF0010EF7
:10100000A4F1FF04B6F5007F64F5407404D25FEAF2
:101010004E0E6D4146EB060642EAC62141EA5551A5
:101020004FEAC52040EA5E504FEACE2EB4F1FD0CE7
:1010300088BFBCF5E06F1ED8BEF1004F08BF5FEA65
:10104000500E50F1000041EB045170BD06F0004617
:1010500046EA010140EA020081EA0301B4EB5C04C4
:10106000C2BFD4EB0C0541EA045170BD41F48011BC
:101070004FF0000E013C00F3AB8014F1360FDEBFE1
:10108000002001F0004170BDC4F10004203C35DABD
:101090000C341BDC04F11404C4F1200500FA05F340
:1010A00020FA04F001FA05F240EA020001F00042E1
:1010B00021F0004110EBD37021FA04F642EB060157
:1010C0005EEA430E08BF20EAD37070BDC4F10C0481
:1010D000C4F1200500FA04F320FA05F001FA04F245
:1010E00040EA020001F0004110EBD37041F1000131
:1010F0005EEA430E08BF20EAD37070BDC4F120053C
:1011000000FA05F24EEA020E20FA04F301FA05F2A3
:1011100043EA020321FA04F001F0004121FA04F24B
:1011200020EA020000EBD3705EEA430E08BF20EA1B
:10113000D37070BD94F0000F0FD101F00046400055
:1011400041EB010111F4801F08BF013CF7D041EAD7
:10115000060195F0000F18BF704703F000465200DB
:1011600043EB030313F4801F08BF013DF7D043EAAC
:101170000603704794EA0C0F0CEA135518BF95EA62
:101180000C0F0CD050EA410618BF52EA4306D1D1E9
:1011900081EA030101F000414FF0000070BD50EA08
:1011A000410606BF1046194652EA430619D094EA92
:1011B0000C0F02D150EA013613D195EA0C0F05D17C
:1011C00052EA03361CBF104619460AD181EA0301D0
:1011D00001F0004141F0FE4141F470014FF0000088
:1011E00070BD41F0FE4141F4780170BD70B54FF023
:1011F000FF0C4CF4E06C1CEA11541DBF1CEA1355A3
:1012000094EA0C0F95EA0C0F00F0A7F8A4EB050484
:1012100081EA030E52EA03354FEA013100F088807B
:101220004FEA03334FF0805545EA131343EA126344
:101230004FEA022245EA111545EA10654FEA0026F9
:101240000EF000419D4208BF964244F1FD0404F5B2
:10125000407402D25B084FEA3202B61A65EB03050E
:101260005B084FEA32024FF480104FF4002CB6EBCB
:10127000020E75EB030E22BFB61A754640EA0C004B
:101280005B084FEA3202B6EB020E75EB030E22BF8B
:10129000B61A754640EA5C005B084FEA3202B6EBCC
:1012A000020E75EB030E22BFB61A754640EA9C008B
:1012B0005B084FEA3202B6EB020E75EB030E22BF5B
:1012C000B61A754640EADC0055EA060E18D04FEA19
:1012D000051545EA16754FEA06164FEAC30343EAB9
:1012E00052734FEAC2025FEA1C1CC0D111F4801F86
:1012F0000BD141EA00014FF000004FF0004CB6E77F
:1013000011F4801F04BF01430020B4F1FD0C88BF1D
:10131000BCF5E06F3FF6AFAEB5EB030C04BFB6EB28
:10132000020C5FEA500C50F1000041EB045170BD1B
:101330000EF0004E4EEA113114EB5C04C2BFD4EB48
:101340000C0541EA045170BD41F480114FF0000ECC
:10135000013C90E645EA060E8DE60CEA135594EA48
:101360000C0F08BF95EA0C0F3FF43BAF94EA0C0F4B
:101370000AD150EA01347FF434AF95EA0C0F7FF4C0
:1013800025AF104619462CE795EA0C0F06D152EA14
:1013900003353FF4FDAE1046194622E750EA4106F8
:1013A00018BF52EA43067FF4C5AE50EA41047FF409
:1013B0000DAF52EA43057FF4EBAE12E74FF0FF3C6E
:1013C00006E000BF4FF0010C02E000BF4FF0010C3F
:1013D0004DF804CD4FEA410C7FEA6C5C4FEA430CB8
:1013E00018BF7FEA6C5C1BD001B050EA410C0CBF07
:1013F00052EA430C91EA030F02BF90EA020F002069
:10140000704710F1000F91EA030F58BF994208BFCF
:1014100090422CBFD8176FEAE37040F0010070478C
:101420004FEA410C7FEA6C5C02D150EA013C07D1E3
:101430004FEA430C7FEA6C5CD6D152EA033CD3D02E
:101440005DF8040B704700BF8446104662468C4628
:101450001946634600E000BF01B5FFF7B7FF00285B
:1014600048BF10F1000F01BD4DF808EDFFF7F4FF84
:101470000CBF012000205DF808FB00BF4DF808ED0F
:10148000FFF7EAFF34BF012000205DF808FB00BF32
:101490004DF808EDFFF7E0FF94BF012000205DF854
:1014A00008FB00BF4DF808EDFFF7CEFF94BF012009
:1014B00000205DF808FB00BF4DF808EDFFF7C4FF02
:1014C00034BF012000205DF808FB00BF4FEA410C4B
:1014D0007FEA6C5C02D150EA013C0AD14FEA430C2E
:1014E0007FEA6C5C02D152EA033C02D14FF000006B
:1014F00070474FF0010070474FEA410212F50012A9
:1015000015D211D56FF47873B3EB625212D94FEA4A
:10151000C12343F0004343EA505311F0004F23FA34
:1015200002F018BF404270474FF00000704750EA89
:10153000013005D111F0004008BF6FF00040704746
:101540004FF00000704700BF0348044B834202D0B5
:10155000034B03B118477047E4060024E406002457
:10156000000000000548064B1B1AD90F01EBA30130
:10157000491002D0034B03B118477047E40600241A
:10158000E40600240000000010B5064C237843B99F
:10159000FFF7DAFF044B13B10448AFF300800123D7
:1015A000237010BDE406002400000000B4F8000819
:1015B00008B5054B1BB105490548AFF30080BDE8F0
:1015C0000840FFF7CFBF00BF00000000E80600247E
:1015D000B4F8000800B583B0354BD3F8D82042F0FA
:1015E0000102C3F8D820D3F8D82002F001020092FB
:1015F000009AD3F8D82042F00202C3F8D820D3F8DA
:10160000D83003F002030193019B002204210B2038
:1016100001F0A8FA0B2001F0B5FA002203210C20FA
:1016200001F0A0FA0C2001F0ADFA002203210D20F8
:1016300001F098FA0D2001F0A5FA002203210E20F6
:1016400001F090FA0E2001F09DFA002203210F20F4
:1016500001F088FA0F2001F095FA002202211020F3
:1016600001F080FA102001F08DFA002202211120F1
:1016700001F078FA112001F085FA002202212F20D2
:1016800001F070FA2F2001F07DFA002201213820AC
:1016900001F068FA382001F075FA002201213920A2
:1016A00001F060FA392001F06DFA03B05DF804FB37
:1016B0000044025838B51548154B03600023836079
:1016C000C3600374437483740421416101258561FF
:1016D0001324C4610522026241628562C46202630E
:1016E00043638263C2630164082242648364C26408
:1016F000036541658365C36502664366826602F0E1
:1017000031FF00B938BD00F0D6F9FBE744080024EA
:1017100000A0004010B51748174B036000238360FA
:10172000C36003744374837405224261012484619D
:101730000E21C161026242628462C162026340F2B0
:10174000563141638263C26303640422426482644B
:101750000821C164036542658365C365026643660B
:101760000623836602F0FEFE00B910BD00F0A3F967
:10177000FBE700BFA407002400A4004010B51748F1
:10178000174B036000238360C36003744374837446
:1017900005224261012484610E21C161026242621C
:1017A0008462C162026340F2AD6141638263C263DD
:1017B00002220264042242648364C26403654265B7
:1017C0008365C365032101664366826602F0CAFE33
:1017D00000B910BD00F06FF9FBE700BF040700245B
:1017E00000D4004010B58CB00023079308930993F0
:1017F0000A930B930368544A934207D0534A934287
:1018000038D0534A934269D00CB010BD514A136886
:1018100001331360012B1FD04F4BD3F8E02042F06F
:101820000802C3F8E020D3F8E03003F00803029385
:10183000029B032307930224089409230B9307A90F
:10184000464803F02BFB00222146132001F08AF9C1
:10185000132001F097F9D7E73F4BD3F8EC2042F47F
:101860008072C3F8EC20D3F8EC3003F4807301935A
:10187000019BD1E7374A136801331360012B1FD056
:10188000354BD3F8E02042F00202C3F8E020D3F851
:10189000E03003F002030493049B602307930223C8
:1018A000089309230B9307A92D4803F0F7FA0022A8
:1018B0000121142001F056F9142001F063F9A3E787
:1018C000254BD3F8EC2042F48072C3F8EC20D3F817
:1018D000EC3003F480730393039BD1E71D4A136834
:1018E00001331360012B20D01B4BD3F8E02042F0D2
:1018F0000802C3F8E020D3F8E03003F008030693B1
:10190000069B4FF4405307930223089305230B9340
:1019100007A9124803F0C2FA002201219F2001F01A
:1019200021F99F2001F02EF96EE70B4BD3F8EC2044
:1019300042F48072C3F8EC20D3F8EC3003F48073E7
:101940000593059BD0E700BF00A0004000A4004025
:1019500000D400400007002400440258000C025844
:1019600000040258F0B58DB000240794089409943F
:101970000A940B94374BD3F8E02042F01002C3F8DE
:10198000E020D3F8E02002F010020192019AD3F88F
:10199000E02042F00402C3F8E020D3F8E02002F097
:1019A00004020292029AD3F8E02042F08002C3F8C7
:1019B000E020D3F8E02002F080020392039AD3F8EB
:1019C000E02042F00102C3F8E020D3F8E02002F06A
:1019D00001020492049AD3F8E02042F00802C3F80E
:1019E000E020D3F8E02002F008020592059AD3F82F
:1019F000E02042F00202C3F8E020D3F8E03003F028
:101A000002030693069B144F01224FF4C04138464F
:101A100003F052FB114D22464FF47E41284603F05D
:101A20004BFB4FF4C04307930126089609940A9490
:101A300007A9384603F032FA4FF47E43079308961D
:101A4000099402230A9307A9284603F027FA0DB048
:101A5000F0BD00BF004402580008025800100258B0
:101A600010B584B00024009401940294039401F012
:101A7000A1F801238DF800308DF801404FF010528D
:101A8000019212228DF808208DF809408DF80A3055
:101A900003228DF80B208DF80C408DF80D308DF859
:101AA0000E308DF80F30684601F0A2F8042001F0E6
:101AB0008FF804B010BD72B6FEE7000000B59DB00F
:101AC0004C22002109A808F033F82022002101A8A7
:101AD00008F02EF8022003F0FFFA00230093204BB9
:101AE0009A6922F440429A619B6903F4404300934F
:101AF000009B1B4B9B6913F4005FFAD001220992F3
:101B00004FF480330A9302231293139314932821E2
:101B100015911692179318930C23199300231A9377
:101B20001B9309A803F002FBA8B93F2301930321EB
:101B30000291002303930823049340230593069303
:101B40004FF480620792089301A803F0F3FE20B9D6
:101B50001DB05DF804FBFFF7AEFFFFF7ACFF00BF61
:101B60000048025800B5AFB0B8220021684607F01F
:101B7000DFFF4FF400420023CDE900231823029336
:101B8000C823039302230493059306932023089309
:101B90004FF000531B93684604F064F910B92FB05E
:101BA0005DF804FBFFF787FF00B583B0FFF758FF30
:101BB0003E4B5B6913F4003F13D1BFF34F8FBFF36C
:101BC0006F8F3A4B0022C3F85022BFF34F8FBFF301
:101BD0006F8F5A6942F400325A61BFF34F8FBFF3DF
:101BE0006F8F324B5B6913F4803F27D12F4B00225C
:101BF000C3F88420BFF34F8FD3F88040C4F34E3036
:101C000000E01846C4F3C90243F6E07303EA401348
:101C100043EA82732549C1F860321346013A002B2A
:101C2000F2D1431E0028ECD1BFF34F8F4B6943F430
:101C300080334B61BFF34F8FBFF36F8F00F0ECFE2B
:101C4000FFF73CFFFFF78EFFFFF78CFEFFF7C2FCAC
:101C500000F0E4FAFFF72EFDFFF75CFDFFF78EFDC5
:101C600000F012FB00F092F900F0A2FA00F06CFA1A
:101C700000F034FA00F0C6F900F0FAF906F068FC5A
:101C80000B49B1F846330B4AB2F851200192009348
:101C9000B1F87432B1F8A221B1F8D010064807F0BB
:101CA000EBFE0A2000F0F8FEEAE700BF00ED00E0DE
:101CB0004C190024F81800241CF9000882B0074BC6
:101CC000D3F8F42042F00202C3F8F420D3F8F43041
:101CD00003F002030193019B02B0704700440258D5
:101CE000FEE7FEE7FEE7FEE7FEE770477047704756
:101CF00008B500F0BFFE08BD08B5024801F0A6FF18
:101D000008BD00BF3409002408B5024801F09EFF59
:101D100008BD00BF240A002408B5024801F096FF60
:101D200008BD00BFAC09002408B5024801F08EFFD1
:101D300008BD00BF8C0B002408B5024801F086FFE7
:101D400008BD00BF140B002408B5024801F07EFF57
:101D500008BD00BF7C0C002408B5024801F076FFE6
:101D600008BD00BF040C002408B5024802F006FFBD
:101D700008BD00BF4408002408B5024802F0FEFE7A
:101D800008BD00BFA407002408B5024805F0AEFA5C
:101D900008BD00BFA00F002408B5024805F0A6FA50
:101DA00008BD00BF0C0F002408B5024805F00EF86E
:101DB00008BD00BFE808002408B5024801F046FF4E
:101DC00008BD00BF6C0D002408B5024805F08EFA6E
:101DD00008BD00BF5C11002408B5024801F036FFC1
:101DE00008BD00BF9C0A002408B5024801F02EFF80
:101DF00008BD00BFF40C002408B5024805F076FACF
:101E000008BD00BFC810002408B5024805F06EFAEE
:101E100008BD00BF3410002408B5024805F066FA7A
:101E200008BD00BFE40D002408B5024802F0A6FE7C
:101E300008BD00BF040700240120704708B507F063
:101E40001DFF162303604FF0FF3008BD08B54FF0AB
:101E5000FF31FFF7F3FFFEE770B50C46164600258D
:101E600006E0AFF30080214601F8010B01350C4676
:101E7000B542F6DB304670BD70B50C4616460025FF
:101E800004E014F8010B00F065FD0135B542F8DB04
:101E9000304670BD4FF0FF3070474FF400534B6039
:101EA00000207047012070470020704710B503469E
:101EB0000C4A0D490D48006840B10C4800680344C5
:101EC000521A934206D8094A136010BD0748084CBD
:101ED0000460F2E707F0D2FE0C2303604FF0FF30FE
:101EE000F3E700BF0000052400040000E40800241C
:101EF000682100241E4B1B6803F00F03062B06D835
:101F00001B4A136823F00F0343F007031360194BB8
:101F10001A6842F001021A6000221A611968164A12
:101F20000A401A60124B1B6813F0080F06D0104AC3
:101F3000136823F00F0343F0070313600D4B0022D7
:101F40009A61DA611A620D4999620D49D9620D49A7
:101F500019635A639963DA6319645A64196821F43E
:101F6000802119601A66084B43F2D2021A6070474A
:101F700000200052004402587FEDF6EA00020202FF
:101F80000000FF01800201010040005208B509482D
:101F9000094B0360EF2343600023836040F2E73284
:101FA000C2600361836105F067F800B908BDFFF7FF
:101FB00082FDFBE7E80800240020004002680F4B88
:101FC0009A4200D0704700B583B00D4BD3F8E8209B
:101FD00042F48072C3F8E820D3F8E83003F4807349
:101FE0000193019B002211462D2000F0BBFD2D2006
:101FF00000F0C8FD03B05DF804FB00BF0020004006
:102000000044025808B51748174B0360174B43604C
:1020100000238360C36003610C2242618361C3615A
:1020200003624362836206F07AF870B900210D48BA
:1020300006F048F960B900210A4806F068F950B97D
:10204000084806F020F948B908BDFFF734FDEDE770
:10205000FFF731FDEFE7FFF72EFDF1E7FFF72BFD6F
:10206000F2E700BF5C110024004C0040003E490034
:1020700008B51748174B0360174B43600023836074
:10208000C36003610C2242618361C36103624362E6
:10209000836206F044F870B900210D4806F012F989
:1020A00060B900210A4806F032F950B9084806F034
:1020B000EAF848B908BDFFF7FEFCEDE7FFF7FBFCC7
:1020C000EFE7FFF7F8FCF1E7FFF7F5FCF2E700BFF9
:1020D000C810002400780040003E490008B51748A9
:1020E000174B0360174B436000238360C360036199
:1020F0000C2242618361C36103624362836206F022
:102100000EF870B900210D4806F0DCF860B9002126
:102110000A4806F0FCF850B9084806F0B4F848B987
:1021200008BDFFF7C8FCEDE7FFF7C5FCEFE7FFF7D9
:10213000C2FCF1E7FFF7BFFCF2E700BF3410002458
:1021400000180140003E490008B51748174B0360CE
:102150004FF46123436000238360C36003610C225A
:1021600042618361C36103624362836205F0D7FF0A
:1021700070B900210C4806F0A5F860B900210A48A2
:1021800006F0C5F850B9084806F07DF848B908BD12
:10219000FFF791FCEDE7FFF78EFCEFE7FFF78BFC15
:1021A000F1E7FFF788FCF2E7A00F002400440040AD
:1021B00008B51748174B0360174B43600023836033
:1021C000C36003610C2242618361C36103624362A5
:1021D000836205F0A4FF70B900210D4806F072F883
:1021E00060B900210A4806F092F850B9084806F094
:1021F0004AF848B908BDFFF75EFCEDE7FFF75BFC66
:10220000EFE7FFF758FCF1E7FFF755FCF2E700BFF7
:102210000C0F002400480040003E490008B5174854
:10222000174B0360174B436000238360C360036157
:102230000C2242618361C36103624362836205F0E1
:102240006EFF70B900210D4806F03CF860B900211E
:102250000A4806F05CF850B9084806F014F848B986
:1022600008BDFFF728FCEDE7FFF725FCEFE7FFF7D8
:1022700022FCF1E7FFF71FFCF2E700BF780E002415
:1022800000140140A068060008B51748174B03600A
:10229000174B436000238360C36003610C224261DB
:1022A0008361C36103624362836205F038FF70B9E2
:1022B00000210D4806F006F860B900210A4806F032
:1022C00026F850B9084805F0DEFF48B908BDFFF709
:1022D000F2FBEDE7FFF7EFFBEFE7FFF7ECFBF1E7D2
:1022E000FFF7E9FBF2E700BFE40D0024001C01400A
:1022F000A06806002DE9F041C2B0044600213D91DE
:102300003E913F9140914191B8220EA807F010FCF8
:102310002368814A93421AD0804A934200F0888011
:102320007F4A934200F01C817E4A934200F08C81E8
:102330007D4A934200F0DF817C4A934200F068823C
:102340007B4A934200F0978242B0BDE8F0810222BE
:102350000023CDE90E230EA803F084FD00285ED1F2
:10236000744BD3F8E82042F40022C3F8E820D3F8F5
:10237000E82002F400220092009AD3F8E02042F014
:102380000102C3F8E020D3F8E03003F00103019329
:10239000019B03233D9302223E9200253F954093EB
:1023A000082341933DA9644802F078FD6348644BDB
:1023B00003603F2343608560C5604FF48063036121
:1023C00045618561C5614FF400330362456200F0E9
:1023D0004BFE38BB594BC4F880309C6359485A4B6C
:1023E00003604023436083600023C3604FF4806236
:1023F000026143618361C3614FF400320262436250
:1024000000F032FE88B94F4BE3679C630022022143
:10241000342000F0A7FB342000F0B4FB94E7FFF772
:102420004AFB9DE7FFF747FBD4E7FFF744FBEAE7EA
:1024300002220023CDE90E230EA803F013FD00288D
:1024400061D13C4BD3F8E82042F08042C3F8E82049
:10245000D3F8E82002F080420292029AD3F8E020FA
:1024600042F01002C3F8E020D3F8E03003F010038C
:102470000393039B4FF4C0733D9302233E930025C7
:102480003F9503234093072341933DA92F4802F032
:1024900005FD2F482F4B03604F2343608560C560C7
:1024A0004FF48063036145618561C5614FF400337A
:1024B0000362456200F0D8FD40BB254BC4F8803074
:1024C0009C632548254B0360502343604023836071
:1024D0000023C3604FF48062026143618361C36182
:1024E0004FF400320262436200F0BEFD88B91A4B1D
:1024F000E3679C6300220221522000F033FB52204C
:1025000000F040FB20E7FFF7D6FA9AE7FFF7D3FA8F
:10251000D3E7FFF7D0FAEAE7004C0040007800402C
:1025200000180140004400400048004000140140F1
:10253000001C014000440258000002586C0D0024A9
:10254000B8000240F40C0024280402400010025895
:102550007C0C002488000240040C0024A0000240EF
:1025600001220023CDE90E230EA803F07BFC0028F6
:1025700061D19B4BD3F8F02042F04002C3F8F02029
:10258000D3F8F02002F040020492049AD3F8E0203D
:1025900042F00802C3F8E020D3F8E03003F008036B
:1025A0000593059B4FF440433D9302233E93002542
:1025B0003F95032340930B2341933DA9894802F0A3
:1025C0006DFC8948894B0360742343608560C56056
:1025D0004FF48063036145618561C5614FF4003349
:1025E0000362456200F040FD40BB7F4BC4F8803081
:1025F0009C637F487F4B0360752343604023836067
:102600000023C3604FF48062026143618361C36150
:102610004FF400320262436200F026FD88B9744B29
:10262000E3679C63002203219B2000F09BFA9B2020
:1026300000F0A8FA88E6FFF73EFA9AE7FFF73BFAC0
:10264000D3E7FFF738FAEAE702220023CDE90E23A9
:102650000EA803F007FC002847D1614BD3F8E8200F
:1026600042F40032C3F8E820D3F8E82002F4003244
:102670000692069AD3F8E02042F00802C3F8E02060
:10268000D3F8E03003F008030793079B60233D93E2
:1026900002233E9300253F95032340930723419354
:1026A0003DA9504802F0FAFB5348544B03602B23DA
:1026B00043608560C5604FF4806303614561856157
:1026C000C5614FF440330362456200F0CDFC78B938
:1026D000494BC4F880309C6300220121262000F081
:1026E00041FA262000F04EFA2EE6FFF7E4F9B4E7AF
:1026F000FFF7E1F9ECE702220023CDE90E230EA853
:1027000003F0B0FB002861D1354BD3F8E82042F448
:102710008022C3F8E820D3F8E82002F4802208924F
:10272000089AD3F8E02042F00802C3F8E020D3F87A
:10273000E03003F008030993099B4FF440733D9385
:1027400002233E9300253F950323409307234193A3
:102750003DA9244802F0A2FB29482A4B03602D23FF
:1027600043608560C5604FF48063036145618561A6
:10277000C5614FF400330362456200F075FC40BB55
:102780001F4BC4F880309C631F48204B03602E23EE
:102790004360402383600023C3604FF48062026182
:1027A00043618361C3614FF400320262436200F00F
:1027B0005BFC88B9144BE3679C630022032127204C
:1027C00000F0D0F9272000F0DDF9BDE5FFF773F93F
:1027D0009AE7FFF770F9D3E7FFF76DF9EAE700BF73
:1027E00000440258000C02588C0B00245800024090
:1027F000140B0024700002409C0A002410040240C4
:10280000240A002428000240AC09002440000240B1
:1028100001220023CDE90E230EA803F023FB38BBD1
:10282000474BD3F8F02042F02002C3F8F020D3F851
:10283000F02002F020020A920A9AD3F8E02042F037
:102840000402C3F8E020D3F8E03003F004030B9354
:102850000B9BC0233D9302233E9300233F9303230E
:102860004093072341933DA9364802F017FB6BE5DF
:10287000FFF721F9D4E701220023CDE90E230EA8AA
:1028800003F0F0FA002855D12D4BD3F8F02042F098
:102890008002C3F8F020D3F8F02002F080020C92FE
:1028A0000C9AD3F8E02042F01002C3F8E020D3F8ED
:1028B000E03003F010030D930D9B04233D934FF084
:1028C0000208CDF8F88000253F95032740974193F3
:1028D0001D4E3DA9304602F0E1FA08233D93CDF8A4
:1028E000F8803F9540970B2341933DA9304602F075
:1028F000D5FA1648164B0360762343608560C560A1
:102900004FF48063036145618561C5614FF4803395
:102910000362456200F0A8FB78B90C4BC4F8803024
:102920009C63002203219C2000F01CF99C2000F0F5
:1029300029F909E5FFF7BFF8A6E7FFF7BCF8ECE7D0
:1029400000440258000802580010025834090024BC
:102950001000024000B583B001904FF0FF33012218
:1029600001A9034805F00EFB019803B05DF804FBD4
:10297000780E0024DFF834D0FFF7BCFA0C480D497C
:102980000D4A002302E0D458C4500433C4188C42CA
:10299000F9D30A4A0A4C002301E013600432A24230
:1029A000FBD307F071F9FFF7FFF87047000005242B
:1029B00000000024E406002478FD0008E40600245A
:1029C00068210024FEE70000104B1B780BB90120A2
:1029D000704710B504464FF47A70B0FBF3F30C4A1D
:1029E0001068B0FBF3F000F0D1F868B90F2C01D9F2
:1029F00001200AE0002221464FF0FF3000F0B2F83B
:102A0000044B1C60002000E0012010BD08000024E1
:102A1000040000240C00002410B5032000F090F8FE
:102A200002F076FE0F498B69C3F303230E4AD35C91
:102A300003F01F03D8408B6903F00F03D35C03F04E
:102A40001F0320FA03F3094A1360094B18600F2093
:102A5000FFF7BAFF10B10124204610BD0446FFF76E
:102A60002DF9F9E700440258D4FA000800000024C8
:102A700004000024034B1B78034A11680B441360C5
:102A8000704700BF08000024F0110024014B1868B3
:102A9000704700BFF011002438B50446FFF7F6FF79
:102AA0000546B4F1FF3F02D0044B1B781C44FFF7EE
:102AB000EDFF401BA042FAD338BD00BF0800002440
:102AC000002807DB00F01F02400901239340024A5F
:102AD00042F82030704700BF00E100E0002804DB2E
:102AE0000901C9B2044B1954704700F00F000901E5
:102AF000C9B2024B1954704700E400E014ED00E045
:102B000000B500F00700C0F1070CBCF1040F28BFAE
:102B10004FF0040C031D062B0FD9C31E4FF0FF3ED0
:102B20000EFA0CF021EA000199400EFA03FE22EAA7
:102B30000E0241EA02005DF804FB0023EEE700000C
:102B40000649CB6823F4E0631B041B0C000200F46D
:102B5000E0600343024A1A43CA60704700ED00E098
:102B60000000FA0510B50446054BD868C0F30220F2
:102B7000FFF7C6FF01462046FFF7B0FF10BD00BFBC
:102B800000ED00E008B5FFF79BFF08BD0138B0F18C
:102B9000807F0BD24FF0E0235861054AF02182F884
:102BA00023100020986107221A61704701207047A6
:102BB00000ED00E0BFF35F8F044B5A6A22F48032CD
:102BC0005A620022C3F89420704700BF00ED00E075
:102BD00040F00100054BC3F894005A6A42F4803279
:102BE0005A62BFF34F8FBFF36F8F704700ED00E065
:102BF0004378144AC2F89830D2F8A03023F0010389
:102C0000C2F8A0304368C2F89C30017BC37A1B062F
:102C100043EA0173817A43EAC143417B43EA81433A
:102C2000817B43EA4143C17B43EA0143417A43EA62
:102C30000123017A43EA410301780B43C2F8A03033
:102C4000704700BF00ED00E0F0B4876D0468664E89
:102C5000664DAC4218BFB44242D01835AC423FD0AA
:102C60001835AC423CD01835AC4239D01835AC429E
:102C700036D01835AC4233D01835AC4230D005F5DB
:102C80005675AC422CD01835AC4229D01835AC4220
:102C900026D01835AC4223D01835AC4220D0183598
:102CA000AC421DD01835AC421AD01835AC4217D002
:102CB0004F4DAC4214D01435AC4211D01435AC4257
:102CC0000ED01435AC420BD01435AC4208D01435BC
:102CD000AC4205D01435AC4202D01435AC4207D119
:102CE000446E856E6560C46E14B1046F456F656097
:102CF00004683D4E3D4DAC4218BFB44252D0183529
:102D0000AC424FD01835AC424CD01835AC4249D00B
:102D10001835AC4246D01835AC4243D01835AC42D9
:102D200040D005F55675AC423CD01835AC4239D090
:102D30001835AC4236D01835AC4233D01835AC42D9
:102D400030D01835AC422DD01835AC422AD01835C9
:102D5000AC4227D0264E274DAC4218BFB44211D00A
:102D6000254DAC420ED01435AC420BD01435AC42DC
:102D700008D01435AC4205D01435AC4202D014351D
:102D8000AC4224D1C46D04F01F050124AC407C602A
:102D9000046863608368402B20D0036899600368EF
:102DA000DA6014E0C46D04F01F0C3F2404FA0CF444
:102DB000BC6005682C6824F480242C60046863607F
:102DC0008368402B05D0036899600368DA60F0BC23
:102DD000704703689A600368D960F8E703689A60EF
:102DE0000368D960F3E700BF1000024028000240EA
:102DF000085402581C54025830540258036827499A
:102E0000274A934218BF8B422FD0183293422CD0BE
:102E10001832934229D01832934226D01832934266
:102E200023D01832934220D0183293421DD002F59D
:102E30005672934219D01832934216D018329342E8
:102E400013D01832934210D0183293420DD018325A
:102E500093420AD01832934207D01832934204D0DA
:102E600023F0FF038365806D704710B4D9B2103929
:102E70000C4AA2FB0142C2F302120B4CA25CC265D7
:102E80005F2906D96FF3090304338365806D10BC95
:102E900070476FF309038365F8E700BF1000024035
:102EA00028000240ABAAAAAAE4FA000883699BB9E9
:102EB000836A012B0AD0022B02D00BB1002070478D
:102EC000C36A13F0807F2AD100207047C36AB3F130
:102ED000C07F26D000207047B3F5005F0AD0836A18
:102EE000022B26D9032B26D1C36A13F0807F24D16D
:102EF00000207047836A032B03D8DFE803F0140433
:102F0000140A00207047C36A13F0807F0DD100209F
:102F10007047C36AB3F1C07F09D000207047012019
:102F20007047012070470120704701207047012041
:102F30007047012070470020704701207047000053
:102F400003682149214A934218BF8B4227D014328B
:102F5000934224D01432934221D0143293421ED093
:102F6000143293421BD01432934218D0143293423D
:102F700015D0DAB2103A1649A1FB0212120915490E
:102F80001944A8291ED9144B13449B000366134B04
:102F9000436602F01F020123934083667047DBB251
:102FA000083B0F4AA2FB03230E4A02EB13129200C6
:102FB00002660D4A4266C3F30413012202FA03F3C8
:102FC000836670470832DEE7085402581C540258E2
:102FD000ABAAAAAAF0FBFDBF008200108008024045
:102FE000CDCCCCCC009600168058025801794A1EF0
:102FF000072A2BD830B40368154D164CA34218BFCE
:10300000AB4218D01434A34215D01434A34212D0CA
:103010001434A3420FD01434A3420CD01434A3426E
:1030200009D01434A34206D00B4B0B449B00C3665B
:103030000A4B036705E00A4B0B449B00C366094B30
:10304000036701239340436730BC7047704700BF5C
:10305000085402581C5402583F8200104009024094
:103060003F9600164059025870B50446FFF70EFD12
:10307000002C00F0B781054623685349534A934218
:1030800018BF8B420CBF0121002150D0183293424F
:103090004DD0183293424AD01832934247D018325A
:1030A000934244D01832934241D0183293423ED0DA
:1030B00002F5567293423AD01832934237D0183202
:1030C000934234D01832934231D0183293422ED0EA
:1030D000183293422BD01832934228D018329342A0
:1030E00025D03B493B4A934218BF8B4200F03281C6
:1030F000394A934200F02E811432934200F02A8123
:103100001432934200F026811432934200F022815F
:103110001432934200F01E811432934200F01A815F
:1031200040236365032384F8353001204AE00222FE
:1031300084F83520002284F8342079BB274A934252
:103140002CD01832934229D01832934226D018320C
:10315000934223D01832934220D0183293421DD08C
:1031600002F55672934219D01832934216D0183293
:10317000934213D01832934210D0183293420DD09C
:10318000183293420AD01832934207D01832934231
:1031900004D01A6822F001021A6003E01A6822F0D3
:1031A00001021A6023681A6812F0010F18D0FFF7A5
:1031B0006DFC431B052BF5D920236365032384F89D
:1031C0003530012070BD00BF1000024028000240D1
:1031D000085402581C54025830540258400002400F
:1031E0001A6881491140A268E068024320690243DD
:1031F00060690243A0690243E0690243206A024316
:103200000A43616A042900F090806168522900F243
:1032100096803F29C0F08E803F39744820FA01F132
:1032200011F0010F01D042F480121A60266875690E
:1032300025F00705636A1D43042B08D1A36A1D43CB
:10324000E36A23B12046FFF731FE00287CD1756187
:103250002046FFF7D3FDE36D03F01F023F239340A9
:10326000836023686249634A934218BF8B4242D00D
:10327000183293423FD0183293423CD018329342D6
:1032800039D01832934236D01832934233D01832A4
:10329000934230D002F5567293422CD018329342AA
:1032A00029D01832934226D01832934223D01832B4
:1032B000934220D0183293421DD0183293421AD034
:1032C0001832934217D04C4A934214D0143293428E
:1032D00011D0143293420ED0143293420BD01432D8
:1032E000934208D01432934205D01432934202D054
:1032F0001432934213D12046FFF722FEA368802B9D
:1033000063D0236E22791A60636EA26E5A6063687E
:10331000013B072B5CD90023E3662367636700202A
:103320006065012384F835304CE7E16A206B014386
:103330000A436AE7293905293FF677AF73E77439FD
:1033400003293FF672AF6EE740236365012084F8DE
:10335000350037E7022284F83520002284F8342033
:1033600019686FF31011A268402A2CD0802A27D048
:103370000022E06842EAD002206942EAD002606995
:1033800042EAD002A06942EAD002E06942EAD002F1
:10339000206A42EA10120A431A602268174B13444B
:1033A000174AA2FB03231B099B00E3652046FFF796
:1033B00025FDE26D02F01F0101228A40426050E7C4
:1033C0004FF48042D5E71022D3E70023636098E7EB
:1033D0002046FFF70BFEE36E00221A60236F626F38
:1033E0005A609CE70120EDE63F8010FE0F030F00BE
:1033F000100002402800024008540258F8ABFDA714
:10340000CDCCCCCC002800F03E8170B5044690F8BD
:103410003400012800F03981012084F8340094F848
:103420003500C0B2012807D04FF400636365002364
:1034300084F83430012070BD022084F8350000206B
:1034400060652068924E934DA84218BFB0422FD0BD
:103450001835A8422CD01835A84229D01835A842D2
:1034600026D01835A84223D01835A84220D01835C8
:10347000A8421DD005F55675A84219D01835A842A6
:1034800016D01835A84213D01835A84210D01835D8
:10349000A8420DD01835A8420AD01835A84207D046
:1034A0001835A84204D0056825F00105056003E041
:1034B000056825F0010505602046FFF7C5FB236878
:1034C0007349744A934218BF8B4238D018329342E2
:1034D00035D01832934232D0183293422FD018325E
:1034E00093422CD01832934229D01832934226D0DE
:1034F00002F55672934222D0183293421FD01832EE
:1035000093421CD01832934219D01832934216D0ED
:103510001832934213D01832934210D0183293428B
:103520000DD01A6822F00E0242F00A021A60236CD3
:1035300093B12268136843F0040313600CE01A6827
:1035400022F01E0242F016021A60236C23B1226898
:10355000136843F00803136023684D494D4A9342B2
:1035600018BF8B4242D0183293423FD01832934258
:103570003CD01832934239D01832934236D01832A8
:10358000934233D01832934230D002F556729342B0
:103590002CD01832934229D01832934226D01832B8
:1035A000934223D01832934220D0183293421DD038
:1035B000183293421AD01832934217D0364A9342A7
:1035C00014D01432934211D0143293420ED01432DC
:1035D00093420BD01432934208D01432934205D058
:1035E0001432934202D0143293420ED1236E1A68E1
:1035F00012F4803F03D01A6842F480721A60E36EBE
:103600001BB11A6842F480721A6023682049214A6B
:10361000934218BF8B4230D0183293422DD01832CB
:1036200093422AD01832934227D01832934224D0A2
:103630001832934221D0183293421ED002F55672AE
:1036400093421AD01832934217D01832934214D0B2
:103650001832934211D0183293420ED0183293424E
:103660000BD01832934208D01832934205D01A6812
:1036700042F001021A600020DDE61A6842F0010201
:103680001A600020D7E6012070470220D3E600BF71
:1036900010000240280002400854025870B5044649
:1036A000FFF7F4F9002C00F09181054694F83530CD
:1036B000DBB2022B06D080236365002384F834300C
:1036C000012070BD23688C498C4A934218BF8B42FD
:1036D00030D0183293422DD0183293422AD018326B
:1036E000934227D01832934224D01832934221D0EB
:1036F000183293421ED002F5567293421AD01832F5
:10370000934217D01832934214D01832934211D0FA
:10371000183293420ED0183293420BD01832934293
:1037200008D01832934205D01A6822F00E021A60AF
:10373000266809E01A6822F01E021A60226853699E
:1037400023F080035361266823686B496B4A9342D8
:1037500018BF8B4242D0183293423FD01832934266
:103760003CD01832934239D01832934236D01832B6
:10377000934233D01832934230D002F556729342BE
:103780002CD01832934229D01832934226D01832C6
:10379000934223D01832934220D0183293421DD046
:1037A000183293421AD01832934217D0544A934297
:1037B00014D01432934211D0143293420ED01432EA
:1037C00093420BD01432934208D01432934205D066
:1037D0001432934202D01432934204D1226E136801
:1037E00023F48073136023684349444A934218BF0B
:1037F0008B422FD0183293422CD01832934229D0CA
:103800001832934226D01832934223D01832934272
:1038100020D0183293421DD002F55672934219D02F
:103820001832934216D01832934213D01832934272
:1038300010D0183293420DD0183293420AD0183269
:10384000934207D01832934204D01A6822F0010242
:103850001A6003E01A6822F001021A60336813F05C
:10386000010F0ED0FFF712F9431B052BF6D92023C9
:103870006365032384F83530002384F83430012055
:103880001FE723681C491D4A934218BF8B4239D059
:103890001832934236D01832934233D018329342C2
:1038A00030D0183293422DD0183293422AD0183299
:1038B000934227D002F55672934223D01832934296
:1038C00020D0183293421DD0183293421AD01832A9
:1038D000934217D01832934214D01832934211D029
:1038E000183293420ED0A16DE36D03F01F02012345
:1038F00093404B600DE000BF1000024028000240E2
:1039000008540258A16DE36D03F01F023F2393405A
:103910008B6023682E492F4A934218BF8B4242D0B6
:10392000183293423FD0183293423CD0183293421F
:1039300039D01832934236D01832934233D01832ED
:10394000934230D002F5567293422CD018329342F3
:1039500029D01832934226D01832934223D01832FD
:10396000934220D0183293421DD0183293421AD07D
:103970001832934217D0184A934214D0143293420B
:1039800011D0143293420ED0143293420BD0143221
:10399000934208D01432934205D01432934202D09D
:1039A000143293420BD1636EA26E5A60E36E33B150
:1039B0001A6822F480721A60236F626F5A600123C2
:1039C00084F83530002084F834007AE6012078E667
:1039D000100002402800024008540258002800F05D
:1039E000288108B5024690F83530DBB2022B03D0AF
:1039F00080234365012008BD0368904890498B42AD
:103A000018BF83420CBF0120002065D018318B42C3
:103A100062D018318B425FD018318B425CD01831A4
:103A20008B4259D018318B4256D018318B4253D02B
:103A300001F556718B424FD018318B424CD0183162
:103A40008B4249D018318B4246D018318B4243D03B
:103A500018318B4240D018318B423DD018318B4207
:103A60003AD0196821F00E0119601368734874493F
:103A70008B4218BF83426AD072498B4267D018319B
:103A80008B4264D018318B4261D018318B425ED0AA
:103A900018318B425BD018318B4258D001F55671EA
:103AA0008B4254D018318B4251D018318B424ED0BA
:103AB00018318B424BD018318B4248D018318B4291
:103AC00045D018318B4242D018318B423FD0196813
:103AD00021F0010119603EE0042182F8351080BB1D
:103AE000584A93422DD0183293422AD0183293422A
:103AF00027D01832934224D01832934221D0183262
:103B000093421ED002F5567293421AD01832934255
:103B100017D01832934214D01832934211D0183271
:103B200093420ED0183293420BD01832934208D0F1
:103B30001832934205D01A6822F001021A60002060
:103B400059E71A6822F001021A60002053E7196849
:103B500021F0010119601368384839498B4218BFB8
:103B6000834242D018318B423FD018318B423CD037
:103B700018318B4239D018318B4236D018318B42F4
:103B800033D018318B4230D001F556718B422CD096
:103B900018318B4229D018318B4226D018318B42F4
:103BA00023D018318B4220D018318B421DD01831D0
:103BB0008B421AD018318B4217D023498B4214D034
:103BC00014318B4211D014318B420ED014318B4200
:103BD0000BD014318B4208D014318B4205D01431F4
:103BE0008B4202D014318B4217D1116E0B6823F433
:103BF00080730B60906DD36D03F01F0101238B4028
:103C00004360536E916E5960D36E33B1196821F4DD
:103C100080711960136F516F5960012382F835303C
:103C2000002382F83430136D2BB1104698470020E2
:103C3000E1E6012070470020DDE600BF10000240F1
:103C4000280002404000024008540258F0B583B0FA
:103C50000446002301937D4B1D687D4BA3FB053576
:103C6000AD0A876D3E68D7F800C0036879497A4885
:103C7000834218BF8B420CBF0120002061D0774ADD
:103C800093425ED0183293425BD01832934258D0A0
:103C90001832934255D01832934252D01832934280
:103CA0004FD002F5567293424BD01832934248D00F
:103CB0001832934245D01832934242D01832934280
:103CC0003FD0183293423CD01832934239D0183248
:103CD000934236D06249634A934218BF8B4212D056
:103CE000614A93420FD0143293420CD01432934263
:103CF00009D01432934206D01432934203D01432C6
:103D0000934240F061821A68E16D01F01F010420C6
:103D1000884010EA0C0F00F0A78212F0040F00F0A8
:103D2000A382786012F4004F00F05A8212F4803FB0
:103D300040F05082A36C002B00F04682204698474A
:103D400042E2E26D02F01F0108228A40324241D075
:103D500070BB424A93422BD01832934228D018327B
:103D6000934225D01832934222D0183293421FD06A
:103D7000183293421CD002F55672934218D0183272
:103D8000934215D01832934212D0183293420FD07A
:103D9000183293420CD01832934209D01832934211
:103DA00006D01832934203D01A68C2F3C00202E070
:103DB0001A68C2F380026AB11A6822F004021A601B
:103DC000E36D03F01F0208239340BB60636D43F073
:103DD00001036365E26D02F01F0226FA02F313F09D
:103DE000010F47D023681B481B498B4218BF8342F1
:103DF0003CD018318B4239D018318B4236D0183133
:103E00008B4233D018318B4230D018318B422DD0B9
:103E100018318B422AD001F556718B4226D01831C9
:103E20008B4223D018318B4220D018318B421DD0C9
:103E300018318B421AD018318B4217D018318B426F
:103E400014D018318B4211D01B6813E004000024F9
:103E5000B5814E1B10000240280002404000024085
:103E6000085402581C540258305402585B6913F02D
:103E7000800F3BD1E36D03F01F03042202FA03F32A
:103E800033423FD02268964896498A4218BF824200
:103E900034D018318A4231D018318A422ED01831AC
:103EA0008A422BD018318A4228D018318A4225D034
:103EB00018318A4222D001F556718A421ED018313B
:103EC0008A421BD018318A4218D018318A4215D044
:103ED00018318A4212D018318A420FD018318A42E2
:103EE0000CD018318A4209D013680BE001239340AB
:103EF000BB60636D43F002036365BBE7126812F0B9
:103F0000020F3DD1E36D03F01F03102202FA03F309
:103F100033425FD02268724872498A4218BF824297
:103F200034D018318A4231D018318A422ED018311B
:103F30008A422BD018318A4228D018318A4225D0A3
:103F400018318A4222D001F556718A421ED01831AA
:103F50008A421BD018318A4218D018318A4215D0B3
:103F600018318A4212D018318A420FD018318A4251
:103F70000CD018318A4209D01268C2F3800208E0DE
:103F8000BB60636D43F004036365BBE71268C2F373
:103F9000C002FAB1BB6023681A6812F4802F0DD0FA
:103FA0001B6813F4002F04D1236C9BB12046984763
:103FB00010E0A36C73B1204698470BE01A6812F426
:103FC000807F03D11A6822F008021A60236C0BB1BB
:103FD00020469847E36D03F01F03202202FA03F303
:103FE000334200F0938022683D483E498A4218BF20
:103FF00082422ED018318A422BD018318A4228D0E2
:1040000018318A4225D018318A4222D018318A428A
:104010001FD018318A421CD001F556718A4218D03F
:1040200018318A4215D018318A4212D018318A428A
:104030000FD018318A420CD018318A4209D0183179
:104040008A4206D018318A4203D01268C2F3400275
:1040500002E01268C2F30012002A57D0BB6094F845
:104060003530DBB2042B0ED023681A6812F4802F8F
:104070003AD01B6813F4002F2DD1636C002B45D070
:104080002046984742E02268136823F01603136025
:104090002268536923F080035361236CBBB122680B
:1040A000136823F008031360E36D03F01F023F233E
:1040B0009340BB60012384F83530002384F834300A
:1040C000236D002B00F08080204698477CE0A36C95
:1040D000002BE4D1E8E7E36BC3B12046984715E035
:1040E00010000240280002401A6812F4807F09D1B3
:1040F0001A6822F010021A60012384F83530002378
:1041000084F83430E36B0BB120469847636D002B85
:104110005AD0636D13F0010F52D0042384F8353068
:1041200023689649964A934218BF8B422FD0183283
:1041300093422CD01832934229D01832934226D081
:104140001832934223D01832934220D0183293422F
:104150001DD002F55672934219D01832934216D0F0
:104160001832934213D01832934210D0183293422F
:104170000DD0183293420AD01832934207D0183229
:10418000934204D01A6822F001021A6003E01A6810
:1041900022F001021A60019B01330193AB4204D863
:1041A00023681B6813F0010FF5D123681B6813F017
:1041B000010F0BD0032384F83530002384F834300A
:1041C000E36C0BB12046984703B0F0BD012384F89F
:1041D0003530F2E7236C002BF6D020469847F3E702
:1041E00012F0200F3AD123686449654A934218BF00
:1041F0008B422FD0183293422CD01832934229D0C0
:104200001832934226D01832934223D01832934268
:1042100020D0183293421DD002F55672934219D025
:104220001832934216D01832934213D01832934268
:1042300010D0183293420DD0183293420AD018325F
:10424000934207D01832934204D01A6822F0040235
:104250001A6003E01A6822F008021A60236C002B2F
:10426000B2D020469847AFE70220884010EA0C0FF2
:1042700060D012F0020F5DD0786012F4004F0ED0C3
:1042800012F4803F05D1636C002B9DD020469847E7
:104290009AE7E36B002B97D02046984794E712F0FB
:1042A000200F40D123683549354A934218BF8B42CD
:1042B0002FD0183293422CD01832934229D0183282
:1042C000934226D01832934223D01832934220D002
:1042D000183293421DD002F55672934219D018320B
:1042E000934216D01832934213D01832934210D012
:1042F000183293420DD0183293420AD018329342AA
:1043000007D01832934204D01A6822F00A021A60C9
:1043100003E01A6822F014021A60012384F8353091
:10432000002384F83430E36B002B3FF44DAF20467C
:10433000984749E7082000FA01F111EA0C0F3FF411
:1043400043AF12F0080F3FF43FAF1A6822F00E029D
:104350001A60E36D03F01F03012202FA03F37B608E
:10436000626584F83520002384F83430E36C002B38
:104370003FF42AAF2046984726E700BF10000240CE
:104380002800024010B4416B0468D4F88430724AAB
:10439000134043EA8103C4F884300468D4F88430BD
:1043A00023F47F03D0F838C043EA0C43C4F88430C8
:1043B000836B0B440468D4F88810114041EA8301F0
:1043C000C4F888100468D4F8881021F4FE01D0F8ED
:1043D0003CC041EA0C41C4F88810C16B03EB4103B7
:1043E0000468D4F8A010114041EA8301C4F8A01079
:1043F0000468D4F8A01021F4FE01D0F840C041EACE
:104400000C41C4F8A010016C446C04FB0133046837
:10441000D4F8B010114041EA8301C4F8B010046828
:10442000D4F8B01021F4FE01D0F848C041EA0C41A4
:10443000C4F8B010816CC46C04FB01330468D4F878
:10444000AC10114041EA8301C4F8AC10016D446D19
:1044500004FB01330468D4F8F010114041EA8301F1
:10446000C4F8F0100468D4F8F01021F47C11D0F8EE
:1044700058C041EA0C41C4F8F010816D03EB4103D0
:104480000468D4F8C0100A4042EA8303C4F8C0307C
:104490000268D2F8C03023F47C13C16D43EA0143B3
:1044A000C2F8C0300268D2F8C03023F07C53016EED
:1044B00043EA0163C2F8C030436B284A1A449200B1
:1044C000C266836B02EB83030367C16B03EBC1031B
:1044D0004367016C446C04FB01F103EB81038367C8
:1044E000816CC46C04FB01F103EB8103C367016DB4
:1044F000446D04FB01F103EB8103C0F88030816D52
:1045000003EBC103C0F88430816EC46D01FB04FC71
:1045100003EB8C03C0F88830046E04FB01F103EB5D
:104520008103C0F890300E498B420DD9D0F89C30F1
:1045300043F02003C0F89C30032380F8983001201A
:1045400007E0002342F8043BD0F890309342F8D8BB
:10455000002010BC704700BF0300FFFF002B0010BD
:10456000FCD3004030B595B004464C22A04901A8C8
:10457000FCF7B6FB002C00F0388123689D4A93427B
:1045800020D094F898300BB32268936923F010037D
:104590009361FEF77BFA054623689A6912F0080FCB
:1045A0001AD0FEF773FA431B0A2BF5D9D4F89C30C6
:1045B00043F00103C4F89C30032384F898300120B1
:1045C00015B030BD03F580736360DAE784F8993085
:1045D0002046FDF707F9D7E79A6942F001029A6190
:1045E000FEF754FA054623689A6912F0010F0FD1BD
:1045F000FEF74CFA401B0A28F5D9D4F89C3043F05A
:104600000103C4F89C30032384F898300120D7E7D5
:104610009A6942F002029A61237C012B40D0226801
:10462000936943F040039361637C012B3ED0226881
:10463000936923F480439361A37C012B3CD02268CF
:10464000936943F4805393612268936923F4407320
:10465000A1680B4393612268936923F0A4039361DB
:104660002268136923F010031361E368012B29D03A
:10467000002B2CD0022B00F09B802268936943F022
:10468000800393612268136943F010031361E368A8
:10469000032B1CD12268936943F02003936116E039
:1046A0002268936923F040039361BDE72268936910
:1046B00043F480439361BFE72268936923F48053F6
:1046C0009361C1E72268936943F004039361A3698E
:1046D0005A1EE369013B1B0243EA4263226A013A24
:1046E00013436269013A216843EA0243CB61A3683C
:1046F000B3F5407F62D0236E33B12268D2F8C03068
:10470000616E0B43C2F8C030E36D226ED3420DD010
:104710002168D1F8C83023F00703A26E14A800EB7B
:10472000820252F84C2C1343C1F8C830236C6BB191
:104730002168D1F8BC3023F00703626C14A800EBA9
:10474000820252F84C2C1343C1F8BC30A36C73B1F5
:104750002168D1F8BC3023F07003E26C14A800EBA0
:10476000820252F84C2C43EA0213C1F8BC30236D8C
:1047700073B12168D1F8BC3023F4E063626D14A8F2
:1047800000EB820252F84C2C43EA0223C1F8BC3001
:104790002268184B9A4222D00023C4F89430C4F8FF
:1047A0009C30012384F898302046FFF7EBFD07E7A3
:1047B0002268936943F02003936188E7A36A013B71
:1047C000E26A013A43EA0223226B013A43EA021306
:1047D000626A013A216843EA0243CB608BE7626870
:1047E000936823F003039360D6E70120E8E600BF57
:1047F000D0F8000800A0004090F89830013BDBB2F0
:10480000012B07D9D0F89C3043F00203C0F89C304C
:10481000012070470B68DBB9CB68072B0ED08A6884
:10482000DB0643EA82730A6943EA02434A69134397
:10483000C26E496842F82130002070470A69CB698E
:104840001B0243EA02438A69134343F06053EFE7D4
:10485000CA680B6943EA4273072A0DD04A69D1F846
:1048600008C042EA8C72006F496800EBC10C40F846
:104870003130CCF80420DFE78A69F4E790F898C07B
:104880005FFA8CFCBCF1010F07D0D0F89C3043F0EC
:104890000403C0F89C3001207047920042EA0112E4
:1048A00042EA43030168009A1A43C1F880200020BD
:1048B000704790F89830DBB2012B07D0D0F89C30CD
:1048C00043F00403C0F89C3001207047022380F8B5
:1048D00098300268936923F0010393610023C0F8C4
:1048E0009C3018467047000090F898C05FFA8CFC26
:1048F000BCF1020F40F0DF8070B540290CD0412997
:104900003DD0046D8C426DD8D0F89C3043F020032C
:10491000C0F89C300120C1E00468D4F8A05015F420
:10492000FE0F0CD0D4F8A45015F07F0F0FD1D0F8A3
:104930009C3043F48073C0F89C300120AEE0D0F886
:104940009C3043F02003C0F89C300120A6E0D4F84E
:10495000A46016F0807604D0D4F8A050002D0CDBB3
:104960000026D4F8A440C4F305242644456F446CC3
:1049700006FB04F405EB840E3BE00126F1E7046836
:10498000D4F8B05015F4FE0F0CD0D4F8B45015F094
:104990007F0F0FD1D0F89C3043F48073C0F89C3067
:1049A00001207BE0D0F89C3043F02003C0F89C301D
:1049B000012073E0D4F8B46016F0807604D0D4F807
:1049C000B050002D0CDB0026D4F8B440C4F305240D
:1049D0002644856FC46C06FB04F405EB840E08E0E6
:1049E0000126F1E7C56F446D01FB04F405EB840E6D
:1049F0000026DEF8004004F08044546064BBDEF81A
:104A00000040C4F38A441460DEF8004004F000540F
:104A10009460DEF8004004F000441461BEF80440E5
:104A2000D461BEF8064004F00F04D460DEF8044000
:104A300004F480145461DEF8044004F4001494611A
:104A40009EF8074004F07F041462DEF80440E40F8F
:104A500054624FF0000C0CE0DEF8004024F060449B
:104A60001460D1E70EEB0C04247A03F80C400CF12F
:104A7000010CD468144D2C5D6445F3D8402909D04D
:104A800041290CD01F290ED8026801238B40C2F89F
:104A9000983002E00368C3F8A860002070BD036886
:104AA000C3F8B860F9E701F01F01026801238B40E9
:104AB000C2F89C30F1E7D0F89C3043F00803C0F80E
:104AC0009C300120704700BFECFA000890F8983045
:104AD000013BDBB2012B07D9D0F89C3043F0020335
:104AE000C0F89C300120704710B403689C6D0C42E4
:104AF00023D1DC6D44F00104DC6511F4007F05D0A6
:104B00000468D4F8E0301343C4F8E03011F4806F47
:104B100005D00468D4F8E4301343C4F8E4300068E6
:104B2000436D0C4A0A40134343650B4A536943EAF9
:104B300091735361002010BC70479C6D31EA0404EE
:104B400002D00324DC65D8E7DC6D44F00204DC65A8
:104B5000D3E700BFFFFFCF3F00A80040704770477A
:104B6000704770477047704770477047704770478D
:104B70007047704770477047704700002DE9F04F4D
:104B800083B00446904B1A695B69134001939B07FD
:104B9000009303681A6D02F4704A5A6D0AEA020A19
:104BA0001A6D02F00F095A6D09EA02091A6D02F036
:104BB000F0085A6D08EA02081E6D06F071565A6D2B
:104BC00016401F6D07F060775A6D17405D6DD3F882
:104BD00050B015F4807F02D01BF4807F64D115F4AF
:104BE000806F02D01BF4806F67D1009B002B74D1C3
:104BF000BAF1000F7ED1B9F1000F40F08780B8F113
:104C0000000F40F08F8015F4006F03D01BF4006F8D
:104C100040F0948015F4007F03D01BF4007F40F037
:104C2000988015F4002F03D01BF4002F40F0A180D2
:104C300015F4803F03D01BF4803F40F0A58015F4AD
:104C4000802F03D01BF4802F40F0A98015F4003F83
:104C50000FD01BF4003F0CD023684FF400321A65CC
:104C6000594B00221A61D4F89C3043F08003C4F8F9
:104C70009C30002F40F09E804EB123681E65B20F1D
:104C8000514B1A61D4F89C303343C4F89C302268ED
:104C90004E4B9A4200F09C80D4F89C30002B40F0A0
:104CA000F98003B0BDE8F08F4FF480721A65464B6F
:104CB00000221A61FFF75AFF91E72368D3F8DC104E
:104CC000D3F8E4204FF4806018653F4B0020186152
:104CD00011402046FFF746FF87E7236800221A6548
:104CE000019B03F00303384A136100992046FFF744
:104CF00035FF7DE72368C3F850A04FEA9A72324B24
:104D00001A6151462046FFF72AFF74E72368C3F86B
:104D100050904FEA99722C4B1A614946204603F095
:104D200045FD6CE72368C3F850804FEA9872264B24
:104D30001A614146204603F065FD64E723684FF49D
:104D400000621A65204B00221A612046FFF708FF17
:104D500060E72368D3F8D810D3F8E0204FF4007050
:104D60001865194B0020186111402046FFF7F9FE25
:104D700057E723684FF400221A65134B00221A618B
:104D80002046FFF7F0FE53E723684FF480321A65A0
:104D90000D4B00221A612046FFF7E6FE4FE723681D
:104DA0004FF480221A65084B00221A612046FFF753
:104DB000DCFE4BE723681F65BA0F034B1A613946C7
:104DC0002046FFF7D5FE57E700A8004000A00040AE
:104DD00063689A6812F0030F3FF45EAF196A01F03E
:104DE0000F015A6A186A00F03008586A08EA000889
:104DF0001F6A07F4C077586A07401E6A06F4FC462B
:104E0000586A06401D6A05F4F025586A0540D3F833
:104E10002490D3F820A011401CD1B8F1000F1ED16E
:104E200019F0400F02D01AF0400F20D15FBB36B10D
:104E300063681E62D4F89C303343C4F89C30002D64
:104E40003FF42AAF63681D62D4F89C302B43C4F84A
:104E50009C3021E719622046FFF78BFEDDE763688F
:104E6000C3F8208041462046FFF784FED8E76368F8
:104E7000D96BDA6B4020186202F03F02090C204621
:104E8000FFF779FED2E763681F6239462046FFF7D5
:104E900073FECCE72046FFF76AFE02E770B582B0EA
:104EA00000236EE085685E000324B44025EA040513
:104EB000CC68B4402C438460456825EA0C054C68F6
:104EC000C4F300149C402C4344606DE0DD080835B9
:104ED00050F8254003F0070C4FEA8C0C4FF00F0EF2
:104EE0000EFA0CFE24EA0E0E0C6904FA0CF444EAE5
:104EF0000E0440F825406FE0092400E0002404FA85
:104F00000EF42C430CF1020C684D45F82C404FF088
:104F1000B0442568D44325EA0206D1F804C01CF445
:104F2000801F01D042EA05064FF0B0452E606D6843
:104F300004EA0506D1F804C01CF4001F01D042EABF
:104F400005064FF0B0456E60D5F8845004EA0506BA
:104F5000D1F804C01CF4003F01D042EA05064FF02E
:104F6000B045C5F88460D5F880502C404E6816F4E2
:104F7000803F01D042EA05044FF0B042C2F88040C1
:104F800001330A6832FA03F400F08D804FF0010C0F
:104F90000CFA03FC1CEA0202F2D04C6804F0030491
:104FA000013C012C7FF67EAF4C6804F00304032C17
:104FB0000CD0C4685D004FF0030C0CFA05FC24EA29
:104FC0000C0C8C68AC4044EA0C04C4604C6804F0DF
:104FD0000304022C3FF47AAF04684FEA430E4FF00B
:104FE000030C0CFA0EFC24EA0C0C4C6804F00304CD
:104FF00004FA0EF444EA0C0404604C6814F4403FD4
:10500000BED02B4CD4F8F45045F00205C4F8F4504F
:10501000D4F8F44004F002040194019C4FEA930C8C
:105020000CF10205214C54F8255003F0030E4FEA11
:105030008E0E0F2404FA0EF425EA04051D4CA0423E
:105040003FF45CAF04F58064A0421ED004F5806498
:10505000A0421CD004F58064A0421AD004F58064FC
:10506000A04218D004F58064A04216D004F58064F4
:10507000A04214D004F58064A04212D004F500646C
:10508000A0423FF439AF0A2439E7012437E702246C
:1050900035E7032433E7042431E705242FE706240A
:1050A0002DE707242BE702B070BD00BF00040058B5
:1050B00000440258000002580AB181617047090497
:1050C00081617047436901EA030221EA030141EA71
:1050D0000241816170470000134BDB6813F0040F3D
:1050E00007D1114BDB6803F0070383421AD001207C
:1050F000704710B50C4AD36823F007030343D3600D
:10510000FDF7C4FC0446084B5B6813F4005F07D14D
:10511000FDF7BCFC001BB0F57A7FF4D9012000E05C
:10512000002010BD0020704700480258002800F001
:10513000D58238B50446036813F0010F25D0A04A84
:10514000136903F03803926A102B15D0182B0FD077
:105150006368B3F5803F3FD0002B53D1984B1A685A
:1051600022F480321A601A6822F480221A6038E031
:1051700002F00302022AEBD1914B1B6813F4003FAB
:1051800003D06368002B00F0AB82236813F0020F9A
:1051900000F088808A4A1369926A13F038035AD063
:1051A000182B55D0E368002B00F0A98084490A68C9
:1051B00022F0190213430B60FDF768FC0546804B93
:1051C0001B6813F0040F40F09180FDF75FFC401B5B
:1051D0000228F4D903208AE2794A136843F4803321
:1051E000136063682BB3FDF751FC0546744B1B68D5
:1051F00013F4003FC9D1FDF749FC401B6428F5D9E1
:10520000032074E2B3F5A02F09D06D4B1A6822F485
:1052100080321A601A6822F480221A60E1E7684B33
:105220001A6842F480221A601A6842F480321A60C6
:10523000D7E7FDF72BFC0546614B1B6813F4003FD5
:10524000A3D0FDF723FC401B6428F5D903204EE2D0
:1052500012F0030FA6D15A4B1B6813F0040F03D0B2
:10526000E368002B00F03E82554A136823F01903CF
:10527000E1680B431360FDF709FC0546504B1B68C2
:1052800013F0040F06D1FDF701FC401B0228F5D9ED
:1052900003202CE24A4A536823F0FE43216943EA83
:1052A00001635360236813F0100F51D0444A13690F
:1052B00003F03803926A082B39D0182B33D0E369F6
:1052C000002B69D03E4A136843F080031360FDF75A
:1052D000DDFB05463A4B1B6813F4807F53D1FDF785
:1052E000D5FB401B0228F5D9032000E2344A53685D
:1052F00023F0FE43216943EA01635360D2E7304A59
:10530000136823F001031360FDF7C0FB05462C4B27
:105310001B6813F0040FC5D0FDF7B8FB401B022833
:10532000F5D90320E3E102F00302012AC7D1244B9F
:105330001B6813F4807F03D0E369802B40F0D48195
:105340001F4AD36823F07C53216A43EA0163D36088
:10535000236813F0080F49D06369002B32D0184A34
:10536000536F43F001035367FDF790FB0546144B61
:105370005B6F13F0020F39D1FDF788FB401B022849
:10538000F5D90320B3E10E4AD36823F07C53216A98
:1053900043EA0163D360DBE7094A136823F0800323
:1053A0001360FDF773FB0546054B1B6813F4807F04
:1053B000CED0FDF76BFB401B0228F5D9032096E108
:1053C000004402589D4A536F23F001035367FDF7D1
:1053D0005DFB0546994B5B6F13F0020F06D0FDF79E
:1053E00055FB401B0228F5D9032080E1236813F008
:1053F000200F29D0A3699BB1904A136843F48053CE
:105400001360FDF743FB05468C4B1B6813F4005FEC
:105410001AD1FDF73BFB401B0228F5D9032066E1BA
:10542000864A136823F480531360FDF72FFB05466B
:10543000824B1B6813F4005F06D0FDF727FB401B6F
:105440000228F5D9032052E1236813F0040F21D17B
:10545000636A002B00F04A81784A126902F0380230
:10546000182A00F0F180022B75D0744A136823F0DB
:1054700080731360FDF70AFB0446704B1B6813F042
:10548000007F00F0D880FDF701FB001B0228F4D953
:1054900003202CE16A4A136843F480731360FDF71C
:1054A000F5FA0546664B1B6813F4807F06D1FDF7BD
:1054B000EDFA401B6428F5D9032018E1A368012BFD
:1054C0000AD00BBB5D4B1A6F22F001021A671A6FEC
:1054D00022F004021A6704E0584A136F43F00103F4
:1054E0001367A36833B3FDF7D1FA0546534B1B6F1F
:1054F00013F0020FACD1FDF7C9FA401B41F288331B
:105500009842F3D90320F2E0052B09D04B4B1A6FD8
:1055100022F001021A671A6F22F004021A67E0E70C
:10552000464B1A6F42F004021A671A6F42F00102EA
:105530001A67D6E7FDF7AAFA0546404B1B6F13F032
:10554000020F85D0FDF7A2FA401B41F28833984242
:10555000F3D90320CBE0394A136823F0807313603A
:10556000FDF794FA0546354B1B6813F0007F06D013
:10557000FDF78CFA401B0228F5D90320B7E02F4B2A
:10558000996A304A0A40A16AE06A41EA00110A4376
:105590009A62226B013AC2F30802616B0139490237
:1055A00089B20A43A16B0139090401F4FE010A43DF
:1055B000E16B0139090601F0FE410A431A63DA6A18
:1055C00022F00102DA625A6B6FF3CF02A16C42EA59
:1055D000C1025A63DA6A22F00C02216C0A43DA62D1
:1055E000DA6A22F00202616C0A43DA62DA6A42F491
:1055F0008032DA62DA6A42F40032DA62DA6A42F45B
:105600008022DA62DA6A42F00102DA621A6842F053
:1056100080721A60FDF73AFA0446084B1B6813F0D3
:10562000007F06D1FDF732FA001B0228F5D90320CE
:105630005DE000205BE0002059E000BF004402581C
:10564000004802580CFCFFFF30498A6A086B012BA6
:105650004ED002F00303A16A8B424BD1C2F3051274
:10566000E36A9A4248D1C0F30802236B013B9A4295
:1056700044D1C0F34622636B013B9A4240D1C0F350
:105680000642A36B013B9A423CD1C0F30660E36B38
:10569000013B984238D11D4B5B6BC3F3CC03A26C2A
:1056A0009A4201D1002022E0184AD36A23F0010374
:1056B000D362FDF7EBF90546FDF7E8F9A842FBD008
:1056C000124A536B6FF3CF03A16C43EAC1035363D8
:1056D000D36A43F00103D362002008E00120704741
:1056E000012004E0012002E0012000E0002038BD9C
:1056F0000120FCE70120FAE70120F8E70120F6E7A6
:105700000120F4E70120F2E70120F0E7004402580D
:10571000F8B5814B1B6903F03803102B00F0F480BF
:10572000182B0FD0002B40F0F2807B4B1B6813F03E
:10573000200F00F0EE80784B1B68C3F3C103774C59
:10574000DC40E2E0744B9D6A05F003059C6AC4F3FB
:105750000514D86A00F001005B6BC3F3CC0303FBB4
:1057600000F0FBF73FF80646002C00F0CE80012D3C
:1057700056D0022D00F08480002D40F0A380664BAF
:105780001B6813F0200F29D0634F3B68C3F3C1039C
:105790006248D840FBF726F805462046FBF722F87A
:1057A00001462846FBF72AF90446386BC0F3080087
:1057B000FBF718F805464FF064513046FBF76AF8DE
:1057C00001462846FAF75EFF4FF07E51FAF75AFF7E
:1057D00001462046FBF75EF8044642E02046FBF710
:1057E00001F801464E48FBF709F904464A4B186B8D
:1057F000C0F30800FAF7F6FF05464FF06451304653
:10580000FBF748F801462846FAF73CFF4FF07E5177
:10581000FAF738FF01462046FBF73CF8044620E043
:105820002046FAF7DFFF01463E48FBF7E7F804465B
:10583000394B186BC0F30800FAF7D4FF05464FF058
:1058400064513046FBF726F801462846FAF71AFF5E
:105850004FF07E51FAF716FF01462046FBF71AF883
:1058600004462D4B1B6BC3F34623581CFAF7BAFFB3
:1058700001462046FBF7C2F8FBF7F8F9044644E07E
:105880002046FAF7AFFF01462748FBF7B7F8044672
:10589000214B186BC0F30800FAF7A4FF05464FF040
:1058A00064513046FAF7F6FF01462846FAF7EAFE59
:1058B0004FF07E51FAF7E6FE01462046FAF7EAFF7E
:1058C0000446CEE72046FAF78DFF01461548FBF760
:1058D00095F80446104B186BC0F30800FAF782FFE6
:1058E00005464FF064513046FAF7D4FF014628468A
:1058F000FAF7C8FE4FF07E51FAF7C4FE0146204683
:10590000FAF7C8FF0446ACE7084C2046F8BD084C3F
:10591000FBE7024CF9E700BF004402580090D003B7
:105920000024744C0024744A001BB74B00366E01EF
:1059300000093D00002800F0328170B50D46044694
:105940009B4B1B6803F00F038B420BD2984A1368E2
:1059500023F00F030B431360136803F00F038B4214
:1059600040F01F81236813F0040F0CD02269914B83
:105970009B6903F070039A4205D98E498B6923F025
:1059800070031A438A61236813F0080F0CD0626910
:10599000884BDB6903F070039A4205D98549CB69CE
:1059A00023F070031A43CA61236813F0100F0CD060
:1059B000A269804BDB6903F4E0639A4205D97D4913
:1059C000CB6923F4E0631A43CA61236813F0200F04
:1059D0000CD0E269774B1B6A03F070039A4205D939
:1059E00074490B6A23F070031A430A62236813F0A8
:1059F000020F0CD0E2686F4B9B6903F00F039A42D1
:105A000005D96C498B6923F00F031A438A61236817
:105A100013F0010F41D0674A936923F47063A168C2
:105A20000B4393616368022B0AD0032B27D0012B11
:105A30002CD0604A126812F0040F06D10120ADE0AC
:105A4000126812F4003F00F0AE805A490A6922F051
:105A5000070213430B61FDF719F80646554B1B6906
:105A600003F038036268B3EBC20F16D0FDF70EF8EF
:105A7000801B41F288339842F0D903208EE04D4AD2
:105A8000126812F0007FE0D1012087E0494A1268D5
:105A900012F4807FD9D1012080E0236813F0020F37
:105AA0000CD0E268434B9B6903F00F039A4205D286
:105AB00040498B6923F00F031A438A613C4B1B68F2
:105AC00003F00F03AB420AD9394A136823F00F03DE
:105AD0002B431360136803F00F03AB4265D12368B7
:105AE00013F0040F0CD02269324B9B6903F0700352
:105AF0009A4205D22F498B6923F070031A438A61B9
:105B0000236813F0080F0CD062692A4BDB6903F09D
